{
	"HelloWorld.sol": {
		"HelloWorld": {
			"abi": [
				{
					"inputs": [
						{
							"internalType": "string",
							"name": "initMessage",
							"type": "string"
						}
					],
					"stateMutability": "nonpayable",
					"type": "constructor"
				},
				{
					"inputs": [],
					"name": "message",
					"outputs": [
						{
							"internalType": "string",
							"name": "",
							"type": "string"
						}
					],
					"stateMutability": "view",
					"type": "function"
				},
				{
					"inputs": [
						{
							"internalType": "string",
							"name": "newMessage",
							"type": "string"
						}
					],
					"name": "update",
					"outputs": [],
					"stateMutability": "nonpayable",
					"type": "function"
				}
			],
			"devdoc": {
				"kind": "dev",
				"methods": {},
				"version": 1
			},
			"evm": {
				"assembly": "    /* \"HelloWorld.sol\":125:618  contract HelloWorld { // Defines a contract named `HelloWorld`... */\n  mstore(0x40, 0x80)\n    /* \"HelloWorld.sol\":280:468  constructor(string memory initMessage) {    // Constructors are used to initialize the contract's data.... */\n  callvalue\n  dup1\n  iszero\n  tag_1\n  jumpi\n  0x00\n  dup1\n  revert\ntag_1:\n  pop\n  mload(0x40)\n  sub(codesize, bytecodeSize)\n  dup1\n  bytecodeSize\n  dup4\n  codecopy\n  dup2\n  dup2\n  add\n  0x40\n  mstore\n  dup2\n  add\n  swap1\n  tag_2\n  swap2\n  swap1\n  tag_3\n  jump\t// in\ntag_2:\n    /* \"HelloWorld.sol\":401:412  initMessage */\n  dup1\n    /* \"HelloWorld.sol\":391:398  message */\n  0x00\n    /* \"HelloWorld.sol\":391:412  message = initMessage */\n  swap1\n  dup2\n  tag_6\n  swap2\n  swap1\n  tag_7\n  jump\t// in\ntag_6:\n  pop\n    /* \"HelloWorld.sol\":280:468  constructor(string memory initMessage) {    // Constructors are used to initialize the contract's data.... */\n  pop\n    /* \"HelloWorld.sol\":125:618  contract HelloWorld { // Defines a contract named `HelloWorld`... */\n  jump(tag_8)\n    /* \"#utility.yul\":7:82   */\ntag_9:\n    /* \"#utility.yul\":40:46   */\n  0x00\n    /* \"#utility.yul\":73:75   */\n  0x40\n    /* \"#utility.yul\":67:76   */\n  mload\n    /* \"#utility.yul\":57:76   */\n  swap1\n  pop\n    /* \"#utility.yul\":7:82   */\n  swap1\n  jump\t// out\n    /* \"#utility.yul\":88:205   */\ntag_10:\n    /* \"#utility.yul\":197:198   */\n  0x00\n    /* \"#utility.yul\":194:195   */\n  dup1\n    /* \"#utility.yul\":187:199   */\n  revert\n    /* \"#utility.yul\":211:328   */\ntag_11:\n    /* \"#utility.yul\":320:321   */\n  0x00\n    /* \"#utility.yul\":317:318   */\n  dup1\n    /* \"#utility.yul\":310:322   */\n  revert\n    /* \"#utility.yul\":334:451   */\ntag_12:\n    /* \"#utility.yul\":443:444   */\n  0x00\n    /* \"#utility.yul\":440:441   */\n  dup1\n    /* \"#utility.yul\":433:445   */\n  revert\n    /* \"#utility.yul\":457:574   */\ntag_13:\n    /* \"#utility.yul\":566:567   */\n  0x00\n    /* \"#utility.yul\":563:564   */\n  dup1\n    /* \"#utility.yul\":556:568   */\n  revert\n    /* \"#utility.yul\":580:682   */\ntag_14:\n    /* \"#utility.yul\":621:627   */\n  0x00\n    /* \"#utility.yul\":672:674   */\n  0x1f\n    /* \"#utility.yul\":668:675   */\n  not\n    /* \"#utility.yul\":663:665   */\n  0x1f\n    /* \"#utility.yul\":656:661   */\n  dup4\n    /* \"#utility.yul\":652:666   */\n  add\n    /* \"#utility.yul\":648:676   */\n  and\n    /* \"#utility.yul\":638:676   */\n  swap1\n  pop\n    /* \"#utility.yul\":580:682   */\n  swap2\n  swap1\n  pop\n  jump\t// out\n    /* \"#utility.yul\":688:868   */\ntag_15:\n    /* \"#utility.yul\":736:813   */\n  0x4e487b7100000000000000000000000000000000000000000000000000000000\n    /* \"#utility.yul\":733:734   */\n  0x00\n    /* \"#utility.yul\":726:814   */\n  mstore\n    /* \"#utility.yul\":833:837   */\n  0x41\n    /* \"#utility.yul\":830:831   */\n  0x04\n    /* \"#utility.yul\":823:838   */\n  mstore\n    /* \"#utility.yul\":857:861   */\n  0x24\n    /* \"#utility.yul\":854:855   */\n  0x00\n    /* \"#utility.yul\":847:862   */\n  revert\n    /* \"#utility.yul\":874:1155   */\ntag_16:\n    /* \"#utility.yul\":957:984   */\n  tag_50\n    /* \"#utility.yul\":979:983   */\n  dup3\n    /* \"#utility.yul\":957:984   */\n  tag_14\n  jump\t// in\ntag_50:\n    /* \"#utility.yul\":949:955   */\n  dup2\n    /* \"#utility.yul\":945:985   */\n  add\n    /* \"#utility.yul\":1087:1093   */\n  dup2\n    /* \"#utility.yul\":1075:1085   */\n  dup2\n    /* \"#utility.yul\":1072:1094   */\n  lt\n    /* \"#utility.yul\":1051:1069   */\n  0xffffffffffffffff\n    /* \"#utility.yul\":1039:1049   */\n  dup3\n    /* \"#utility.yul\":1036:1070   */\n  gt\n    /* \"#utility.yul\":1033:1095   */\n  or\n    /* \"#utility.yul\":1030:1118   */\n  iszero\n  tag_51\n  jumpi\n    /* \"#utility.yul\":1098:1116   */\n  tag_52\n  tag_15\n  jump\t// in\ntag_52:\n    /* \"#utility.yul\":1030:1118   */\ntag_51:\n    /* \"#utility.yul\":1138:1148   */\n  dup1\n    /* \"#utility.yul\":1134:1136   */\n  0x40\n    /* \"#utility.yul\":1127:1149   */\n  mstore\n    /* \"#utility.yul\":917:1155   */\n  pop\n    /* \"#utility.yul\":874:1155   */\n  pop\n  pop\n  jump\t// out\n    /* \"#utility.yul\":1161:1290   */\ntag_17:\n    /* \"#utility.yul\":1195:1201   */\n  0x00\n    /* \"#utility.yul\":1222:1242   */\n  tag_54\n  tag_9\n  jump\t// in\ntag_54:\n    /* \"#utility.yul\":1212:1242   */\n  swap1\n  pop\n    /* \"#utility.yul\":1251:1284   */\n  tag_55\n    /* \"#utility.yul\":1279:1283   */\n  dup3\n    /* \"#utility.yul\":1271:1277   */\n  dup3\n    /* \"#utility.yul\":1251:1284   */\n  tag_16\n  jump\t// in\ntag_55:\n    /* \"#utility.yul\":1161:1290   */\n  swap2\n  swap1\n  pop\n  jump\t// out\n    /* \"#utility.yul\":1296:1604   */\ntag_18:\n    /* \"#utility.yul\":1358:1362   */\n  0x00\n    /* \"#utility.yul\":1448:1466   */\n  0xffffffffffffffff\n    /* \"#utility.yul\":1440:1446   */\n  dup3\n    /* \"#utility.yul\":1437:1467   */\n  gt\n    /* \"#utility.yul\":1434:1490   */\n  iszero\n  tag_57\n  jumpi\n    /* \"#utility.yul\":1470:1488   */\n  tag_58\n  tag_15\n  jump\t// in\ntag_58:\n    /* \"#utility.yul\":1434:1490   */\ntag_57:\n    /* \"#utility.yul\":1508:1537   */\n  tag_59\n    /* \"#utility.yul\":1530:1536   */\n  dup3\n    /* \"#utility.yul\":1508:1537   */\n  tag_14\n  jump\t// in\ntag_59:\n    /* \"#utility.yul\":1500:1537   */\n  swap1\n  pop\n    /* \"#utility.yul\":1592:1596   */\n  0x20\n    /* \"#utility.yul\":1586:1590   */\n  dup2\n    /* \"#utility.yul\":1582:1597   */\n  add\n    /* \"#utility.yul\":1574:1597   */\n  swap1\n  pop\n    /* \"#utility.yul\":1296:1604   */\n  swap2\n  swap1\n  pop\n  jump\t// out\n    /* \"#utility.yul\":1610:1856   */\ntag_19:\n    /* \"#utility.yul\":1691:1692   */\n  0x00\n    /* \"#utility.yul\":1701:1814   */\ntag_61:\n    /* \"#utility.yul\":1715:1721   */\n  dup4\n    /* \"#utility.yul\":1712:1713   */\n  dup2\n    /* \"#utility.yul\":1709:1722   */\n  lt\n    /* \"#utility.yul\":1701:1814   */\n  iszero\n  tag_63\n  jumpi\n    /* \"#utility.yul\":1800:1801   */\n  dup1\n    /* \"#utility.yul\":1795:1798   */\n  dup3\n    /* \"#utility.yul\":1791:1802   */\n  add\n    /* \"#utility.yul\":1785:1803   */\n  mload\n    /* \"#utility.yul\":1781:1782   */\n  dup2\n    /* \"#utility.yul\":1776:1779   */\n  dup5\n    /* \"#utility.yul\":1772:1783   */\n  add\n    /* \"#utility.yul\":1765:1804   */\n  mstore\n    /* \"#utility.yul\":1737:1739   */\n  0x20\n    /* \"#utility.yul\":1734:1735   */\n  dup2\n    /* \"#utility.yul\":1730:1740   */\n  add\n    /* \"#utility.yul\":1725:1740   */\n  swap1\n  pop\n    /* \"#utility.yul\":1701:1814   */\n  jump(tag_61)\ntag_63:\n    /* \"#utility.yul\":1848:1849   */\n  0x00\n    /* \"#utility.yul\":1839:1845   */\n  dup5\n    /* \"#utility.yul\":1834:1837   */\n  dup5\n    /* \"#utility.yul\":1830:1846   */\n  add\n    /* \"#utility.yul\":1823:1850   */\n  mstore\n    /* \"#utility.yul\":1672:1856   */\n  pop\n    /* \"#utility.yul\":1610:1856   */\n  pop\n  pop\n  pop\n  jump\t// out\n    /* \"#utility.yul\":1862:2296   */\ntag_20:\n    /* \"#utility.yul\":1951:1956   */\n  0x00\n    /* \"#utility.yul\":1976:2042   */\n  tag_65\n    /* \"#utility.yul\":1992:2041   */\n  tag_66\n    /* \"#utility.yul\":2034:2040   */\n  dup5\n    /* \"#utility.yul\":1992:2041   */\n  tag_18\n  jump\t// in\ntag_66:\n    /* \"#utility.yul\":1976:2042   */\n  tag_17\n  jump\t// in\ntag_65:\n    /* \"#utility.yul\":1967:2042   */\n  swap1\n  pop\n    /* \"#utility.yul\":2065:2071   */\n  dup3\n    /* \"#utility.yul\":2058:2063   */\n  dup2\n    /* \"#utility.yul\":2051:2072   */\n  mstore\n    /* \"#utility.yul\":2103:2107   */\n  0x20\n    /* \"#utility.yul\":2096:2101   */\n  dup2\n    /* \"#utility.yul\":2092:2108   */\n  add\n    /* \"#utility.yul\":2141:2144   */\n  dup5\n    /* \"#utility.yul\":2132:2138   */\n  dup5\n    /* \"#utility.yul\":2127:2130   */\n  dup5\n    /* \"#utility.yul\":2123:2139   */\n  add\n    /* \"#utility.yul\":2120:2145   */\n  gt\n    /* \"#utility.yul\":2117:2229   */\n  iszero\n  tag_67\n  jumpi\n    /* \"#utility.yul\":2148:2227   */\n  tag_68\n  tag_13\n  jump\t// in\ntag_68:\n    /* \"#utility.yul\":2117:2229   */\ntag_67:\n    /* \"#utility.yul\":2238:2290   */\n  tag_69\n    /* \"#utility.yul\":2283:2289   */\n  dup5\n    /* \"#utility.yul\":2278:2281   */\n  dup3\n    /* \"#utility.yul\":2273:2276   */\n  dup6\n    /* \"#utility.yul\":2238:2290   */\n  tag_19\n  jump\t// in\ntag_69:\n    /* \"#utility.yul\":1957:2296   */\n  pop\n    /* \"#utility.yul\":1862:2296   */\n  swap4\n  swap3\n  pop\n  pop\n  pop\n  jump\t// out\n    /* \"#utility.yul\":2316:2671   */\ntag_21:\n    /* \"#utility.yul\":2383:2388   */\n  0x00\n    /* \"#utility.yul\":2432:2435   */\n  dup3\n    /* \"#utility.yul\":2425:2429   */\n  0x1f\n    /* \"#utility.yul\":2417:2423   */\n  dup4\n    /* \"#utility.yul\":2413:2430   */\n  add\n    /* \"#utility.yul\":2409:2436   */\n  slt\n    /* \"#utility.yul\":2399:2521   */\n  tag_71\n  jumpi\n    /* \"#utility.yul\":2440:2519   */\n  tag_72\n  tag_12\n  jump\t// in\ntag_72:\n    /* \"#utility.yul\":2399:2521   */\ntag_71:\n    /* \"#utility.yul\":2550:2556   */\n  dup2\n    /* \"#utility.yul\":2544:2557   */\n  mload\n    /* \"#utility.yul\":2575:2665   */\n  tag_73\n    /* \"#utility.yul\":2661:2664   */\n  dup5\n    /* \"#utility.yul\":2653:2659   */\n  dup3\n    /* \"#utility.yul\":2646:2650   */\n  0x20\n    /* \"#utility.yul\":2638:2644   */\n  dup7\n    /* \"#utility.yul\":2634:2651   */\n  add\n    /* \"#utility.yul\":2575:2665   */\n  tag_20\n  jump\t// in\ntag_73:\n    /* \"#utility.yul\":2566:2665   */\n  swap2\n  pop\n    /* \"#utility.yul\":2389:2671   */\n  pop\n    /* \"#utility.yul\":2316:2671   */\n  swap3\n  swap2\n  pop\n  pop\n  jump\t// out\n    /* \"#utility.yul\":2677:3201   */\ntag_3:\n    /* \"#utility.yul\":2757:2763   */\n  0x00\n    /* \"#utility.yul\":2806:2808   */\n  0x20\n    /* \"#utility.yul\":2794:2803   */\n  dup3\n    /* \"#utility.yul\":2785:2792   */\n  dup5\n    /* \"#utility.yul\":2781:2804   */\n  sub\n    /* \"#utility.yul\":2777:2809   */\n  slt\n    /* \"#utility.yul\":2774:2893   */\n  iszero\n  tag_75\n  jumpi\n    /* \"#utility.yul\":2812:2891   */\n  tag_76\n  tag_10\n  jump\t// in\ntag_76:\n    /* \"#utility.yul\":2774:2893   */\ntag_75:\n    /* \"#utility.yul\":2953:2954   */\n  0x00\n    /* \"#utility.yul\":2942:2951   */\n  dup3\n    /* \"#utility.yul\":2938:2955   */\n  add\n    /* \"#utility.yul\":2932:2956   */\n  mload\n    /* \"#utility.yul\":2983:3001   */\n  0xffffffffffffffff\n    /* \"#utility.yul\":2975:2981   */\n  dup2\n    /* \"#utility.yul\":2972:3002   */\n  gt\n    /* \"#utility.yul\":2969:3086   */\n  iszero\n  tag_77\n  jumpi\n    /* \"#utility.yul\":3005:3084   */\n  tag_78\n  tag_11\n  jump\t// in\ntag_78:\n    /* \"#utility.yul\":2969:3086   */\ntag_77:\n    /* \"#utility.yul\":3110:3184   */\n  tag_79\n    /* \"#utility.yul\":3176:3183   */\n  dup5\n    /* \"#utility.yul\":3167:3173   */\n  dup3\n    /* \"#utility.yul\":3156:3165   */\n  dup6\n    /* \"#utility.yul\":3152:3174   */\n  add\n    /* \"#utility.yul\":3110:3184   */\n  tag_21\n  jump\t// in\ntag_79:\n    /* \"#utility.yul\":3100:3184   */\n  swap2\n  pop\n    /* \"#utility.yul\":2903:3194   */\n  pop\n    /* \"#utility.yul\":2677:3201   */\n  swap3\n  swap2\n  pop\n  pop\n  jump\t// out\n    /* \"#utility.yul\":3207:3306   */\ntag_22:\n    /* \"#utility.yul\":3259:3265   */\n  0x00\n    /* \"#utility.yul\":3293:3298   */\n  dup2\n    /* \"#utility.yul\":3287:3299   */\n  mload\n    /* \"#utility.yul\":3277:3299   */\n  swap1\n  pop\n    /* \"#utility.yul\":3207:3306   */\n  swap2\n  swap1\n  pop\n  jump\t// out\n    /* \"#utility.yul\":3312:3492   */\ntag_23:\n    /* \"#utility.yul\":3360:3437   */\n  0x4e487b7100000000000000000000000000000000000000000000000000000000\n    /* \"#utility.yul\":3357:3358   */\n  0x00\n    /* \"#utility.yul\":3350:3438   */\n  mstore\n    /* \"#utility.yul\":3457:3461   */\n  0x22\n    /* \"#utility.yul\":3454:3455   */\n  0x04\n    /* \"#utility.yul\":3447:3462   */\n  mstore\n    /* \"#utility.yul\":3481:3485   */\n  0x24\n    /* \"#utility.yul\":3478:3479   */\n  0x00\n    /* \"#utility.yul\":3471:3486   */\n  revert\n    /* \"#utility.yul\":3498:3818   */\ntag_24:\n    /* \"#utility.yul\":3542:3548   */\n  0x00\n    /* \"#utility.yul\":3579:3580   */\n  0x02\n    /* \"#utility.yul\":3573:3577   */\n  dup3\n    /* \"#utility.yul\":3569:3581   */\n  div\n    /* \"#utility.yul\":3559:3581   */\n  swap1\n  pop\n    /* \"#utility.yul\":3626:3627   */\n  0x01\n    /* \"#utility.yul\":3620:3624   */\n  dup3\n    /* \"#utility.yul\":3616:3628   */\n  and\n    /* \"#utility.yul\":3647:3665   */\n  dup1\n    /* \"#utility.yul\":3637:3718   */\n  tag_83\n  jumpi\n    /* \"#utility.yul\":3703:3707   */\n  0x7f\n    /* \"#utility.yul\":3695:3701   */\n  dup3\n    /* \"#utility.yul\":3691:3708   */\n  and\n    /* \"#utility.yul\":3681:3708   */\n  swap2\n  pop\n    /* \"#utility.yul\":3637:3718   */\ntag_83:\n    /* \"#utility.yul\":3765:3767   */\n  0x20\n    /* \"#utility.yul\":3757:3763   */\n  dup3\n    /* \"#utility.yul\":3754:3768   */\n  lt\n    /* \"#utility.yul\":3734:3752   */\n  dup2\n    /* \"#utility.yul\":3731:3769   */\n  sub\n    /* \"#utility.yul\":3728:3812   */\n  tag_84\n  jumpi\n    /* \"#utility.yul\":3784:3802   */\n  tag_85\n  tag_23\n  jump\t// in\ntag_85:\n    /* \"#utility.yul\":3728:3812   */\ntag_84:\n    /* \"#utility.yul\":3549:3818   */\n  pop\n    /* \"#utility.yul\":3498:3818   */\n  swap2\n  swap1\n  pop\n  jump\t// out\n    /* \"#utility.yul\":3824:3965   */\ntag_25:\n    /* \"#utility.yul\":3873:3877   */\n  0x00\n    /* \"#utility.yul\":3896:3899   */\n  dup2\n    /* \"#utility.yul\":3888:3899   */\n  swap1\n  pop\n    /* \"#utility.yul\":3919:3922   */\n  dup2\n    /* \"#utility.yul\":3916:3917   */\n  0x00\n    /* \"#utility.yul\":3909:3923   */\n  mstore\n    /* \"#utility.yul\":3953:3957   */\n  0x20\n    /* \"#utility.yul\":3950:3951   */\n  0x00\n    /* \"#utility.yul\":3940:3958   */\n  keccak256\n    /* \"#utility.yul\":3932:3958   */\n  swap1\n  pop\n    /* \"#utility.yul\":3824:3965   */\n  swap2\n  swap1\n  pop\n  jump\t// out\n    /* \"#utility.yul\":3971:4064   */\ntag_26:\n    /* \"#utility.yul\":4008:4014   */\n  0x00\n    /* \"#utility.yul\":4055:4057   */\n  0x20\n    /* \"#utility.yul\":4050:4052   */\n  0x1f\n    /* \"#utility.yul\":4043:4048   */\n  dup4\n    /* \"#utility.yul\":4039:4053   */\n  add\n    /* \"#utility.yul\":4035:4058   */\n  div\n    /* \"#utility.yul\":4025:4058   */\n  swap1\n  pop\n    /* \"#utility.yul\":3971:4064   */\n  swap2\n  swap1\n  pop\n  jump\t// out\n    /* \"#utility.yul\":4070:4177   */\ntag_27:\n    /* \"#utility.yul\":4114:4122   */\n  0x00\n    /* \"#utility.yul\":4164:4169   */\n  dup3\n    /* \"#utility.yul\":4158:4162   */\n  dup3\n    /* \"#utility.yul\":4154:4170   */\n  shl\n    /* \"#utility.yul\":4133:4170   */\n  swap1\n  pop\n    /* \"#utility.yul\":4070:4177   */\n  swap3\n  swap2\n  pop\n  pop\n  jump\t// out\n    /* \"#utility.yul\":4183:4576   */\ntag_28:\n    /* \"#utility.yul\":4252:4258   */\n  0x00\n    /* \"#utility.yul\":4302:4303   */\n  0x08\n    /* \"#utility.yul\":4290:4300   */\n  dup4\n    /* \"#utility.yul\":4286:4304   */\n  mul\n    /* \"#utility.yul\":4325:4422   */\n  tag_90\n    /* \"#utility.yul\":4355:4421   */\n  0xffffffffffffffffffffffffffffffffffffffffffffffffffffffffffffffff\n    /* \"#utility.yul\":4344:4353   */\n  dup3\n    /* \"#utility.yul\":4325:4422   */\n  tag_27\n  jump\t// in\ntag_90:\n    /* \"#utility.yul\":4443:4482   */\n  tag_91\n    /* \"#utility.yul\":4473:4481   */\n  dup7\n    /* \"#utility.yul\":4462:4471   */\n  dup4\n    /* \"#utility.yul\":4443:4482   */\n  tag_27\n  jump\t// in\ntag_91:\n    /* \"#utility.yul\":4431:4482   */\n  swap6\n  pop\n    /* \"#utility.yul\":4515:4519   */\n  dup1\n    /* \"#utility.yul\":4511:4520   */\n  not\n    /* \"#utility.yul\":4504:4509   */\n  dup5\n    /* \"#utility.yul\":4500:4521   */\n  and\n    /* \"#utility.yul\":4491:4521   */\n  swap4\n  pop\n    /* \"#utility.yul\":4564:4568   */\n  dup1\n    /* \"#utility.yul\":4554:4562   */\n  dup7\n    /* \"#utility.yul\":4550:4569   */\n  and\n    /* \"#utility.yul\":4543:4548   */\n  dup5\n    /* \"#utility.yul\":4540:4570   */\n  or\n    /* \"#utility.yul\":4530:4570   */\n  swap3\n  pop\n    /* \"#utility.yul\":4259:4576   */\n  pop\n  pop\n    /* \"#utility.yul\":4183:4576   */\n  swap4\n  swap3\n  pop\n  pop\n  pop\n  jump\t// out\n    /* \"#utility.yul\":4582:4659   */\ntag_29:\n    /* \"#utility.yul\":4619:4626   */\n  0x00\n    /* \"#utility.yul\":4648:4653   */\n  dup2\n    /* \"#utility.yul\":4637:4653   */\n  swap1\n  pop\n    /* \"#utility.yul\":4582:4659   */\n  swap2\n  swap1\n  pop\n  jump\t// out\n    /* \"#utility.yul\":4665:4725   */\ntag_30:\n    /* \"#utility.yul\":4693:4696   */\n  0x00\n    /* \"#utility.yul\":4714:4719   */\n  dup2\n    /* \"#utility.yul\":4707:4719   */\n  swap1\n  pop\n    /* \"#utility.yul\":4665:4725   */\n  swap2\n  swap1\n  pop\n  jump\t// out\n    /* \"#utility.yul\":4731:4873   */\ntag_31:\n    /* \"#utility.yul\":4781:4790   */\n  0x00\n    /* \"#utility.yul\":4814:4867   */\n  tag_95\n    /* \"#utility.yul\":4832:4866   */\n  tag_96\n    /* \"#utility.yul\":4841:4865   */\n  tag_97\n    /* \"#utility.yul\":4859:4864   */\n  dup5\n    /* \"#utility.yul\":4841:4865   */\n  tag_29\n  jump\t// in\ntag_97:\n    /* \"#utility.yul\":4832:4866   */\n  tag_30\n  jump\t// in\ntag_96:\n    /* \"#utility.yul\":4814:4867   */\n  tag_29\n  jump\t// in\ntag_95:\n    /* \"#utility.yul\":4801:4867   */\n  swap1\n  pop\n    /* \"#utility.yul\":4731:4873   */\n  swap2\n  swap1\n  pop\n  jump\t// out\n    /* \"#utility.yul\":4879:4954   */\ntag_32:\n    /* \"#utility.yul\":4922:4925   */\n  0x00\n    /* \"#utility.yul\":4943:4948   */\n  dup2\n    /* \"#utility.yul\":4936:4948   */\n  swap1\n  pop\n    /* \"#utility.yul\":4879:4954   */\n  swap2\n  swap1\n  pop\n  jump\t// out\n    /* \"#utility.yul\":4960:5229   */\ntag_33:\n    /* \"#utility.yul\":5070:5109   */\n  tag_100\n    /* \"#utility.yul\":5101:5108   */\n  dup4\n    /* \"#utility.yul\":5070:5109   */\n  tag_31\n  jump\t// in\ntag_100:\n    /* \"#utility.yul\":5131:5222   */\n  tag_101\n    /* \"#utility.yul\":5180:5221   */\n  tag_102\n    /* \"#utility.yul\":5204:5220   */\n  dup3\n    /* \"#utility.yul\":5180:5221   */\n  tag_32\n  jump\t// in\ntag_102:\n    /* \"#utility.yul\":5172:5178   */\n  dup5\n    /* \"#utility.yul\":5165:5169   */\n  dup5\n    /* \"#utility.yul\":5159:5170   */\n  sload\n    /* \"#utility.yul\":5131:5222   */\n  tag_28\n  jump\t// in\ntag_101:\n    /* \"#utility.yul\":5125:5129   */\n  dup3\n    /* \"#utility.yul\":5118:5223   */\n  sstore\n    /* \"#utility.yul\":5036:5229   */\n  pop\n    /* \"#utility.yul\":4960:5229   */\n  pop\n  pop\n  pop\n  jump\t// out\n    /* \"#utility.yul\":5235:5308   */\ntag_34:\n    /* \"#utility.yul\":5280:5283   */\n  0x00\n    /* \"#utility.yul\":5235:5308   */\n  swap1\n  jump\t// out\n    /* \"#utility.yul\":5314:5503   */\ntag_35:\n    /* \"#utility.yul\":5391:5423   */\n  tag_105\n  tag_34\n  jump\t// in\ntag_105:\n    /* \"#utility.yul\":5432:5497   */\n  tag_106\n    /* \"#utility.yul\":5490:5496   */\n  dup2\n    /* \"#utility.yul\":5482:5488   */\n  dup5\n    /* \"#utility.yul\":5476:5480   */\n  dup5\n    /* \"#utility.yul\":5432:5497   */\n  tag_33\n  jump\t// in\ntag_106:\n    /* \"#utility.yul\":5367:5503   */\n  pop\n    /* \"#utility.yul\":5314:5503   */\n  pop\n  pop\n  jump\t// out\n    /* \"#utility.yul\":5509:5695   */\ntag_36:\n    /* \"#utility.yul\":5569:5689   */\ntag_108:\n    /* \"#utility.yul\":5586:5589   */\n  dup2\n    /* \"#utility.yul\":5579:5584   */\n  dup2\n    /* \"#utility.yul\":5576:5590   */\n  lt\n    /* \"#utility.yul\":5569:5689   */\n  iszero\n  tag_110\n  jumpi\n    /* \"#utility.yul\":5640:5679   */\n  tag_111\n    /* \"#utility.yul\":5677:5678   */\n  0x00\n    /* \"#utility.yul\":5670:5675   */\n  dup3\n    /* \"#utility.yul\":5640:5679   */\n  tag_35\n  jump\t// in\ntag_111:\n    /* \"#utility.yul\":5613:5614   */\n  0x01\n    /* \"#utility.yul\":5606:5611   */\n  dup2\n    /* \"#utility.yul\":5602:5615   */\n  add\n    /* \"#utility.yul\":5593:5615   */\n  swap1\n  pop\n    /* \"#utility.yul\":5569:5689   */\n  jump(tag_108)\ntag_110:\n    /* \"#utility.yul\":5509:5695   */\n  pop\n  pop\n  jump\t// out\n    /* \"#utility.yul\":5701:6244   */\ntag_37:\n    /* \"#utility.yul\":5802:5804   */\n  0x1f\n    /* \"#utility.yul\":5797:5800   */\n  dup3\n    /* \"#utility.yul\":5794:5805   */\n  gt\n    /* \"#utility.yul\":5791:6237   */\n  iszero\n  tag_113\n  jumpi\n    /* \"#utility.yul\":5836:5874   */\n  tag_114\n    /* \"#utility.yul\":5868:5873   */\n  dup2\n    /* \"#utility.yul\":5836:5874   */\n  tag_25\n  jump\t// in\ntag_114:\n    /* \"#utility.yul\":5920:5949   */\n  tag_115\n    /* \"#utility.yul\":5938:5948   */\n  dup5\n    /* \"#utility.yul\":5920:5949   */\n  tag_26\n  jump\t// in\ntag_115:\n    /* \"#utility.yul\":5910:5918   */\n  dup2\n    /* \"#utility.yul\":5906:5950   */\n  add\n    /* \"#utility.yul\":6103:6105   */\n  0x20\n    /* \"#utility.yul\":6091:6101   */\n  dup6\n    /* \"#utility.yul\":6088:6106   */\n  lt\n    /* \"#utility.yul\":6085:6134   */\n  iszero\n  tag_116\n  jumpi\n    /* \"#utility.yul\":6124:6132   */\n  dup2\n    /* \"#utility.yul\":6109:6132   */\n  swap1\n  pop\n    /* \"#utility.yul\":6085:6134   */\ntag_116:\n    /* \"#utility.yul\":6147:6227   */\n  tag_117\n    /* \"#utility.yul\":6203:6225   */\n  tag_118\n    /* \"#utility.yul\":6221:6224   */\n  dup6\n    /* \"#utility.yul\":6203:6225   */\n  tag_26\n  jump\t// in\ntag_118:\n    /* \"#utility.yul\":6193:6201   */\n  dup4\n    /* \"#utility.yul\":6189:6226   */\n  add\n    /* \"#utility.yul\":6176:6187   */\n  dup3\n    /* \"#utility.yul\":6147:6227   */\n  tag_36\n  jump\t// in\ntag_117:\n    /* \"#utility.yul\":5806:6237   */\n  pop\n  pop\n    /* \"#utility.yul\":5791:6237   */\ntag_113:\n    /* \"#utility.yul\":5701:6244   */\n  pop\n  pop\n  pop\n  jump\t// out\n    /* \"#utility.yul\":6250:6367   */\ntag_38:\n    /* \"#utility.yul\":6304:6312   */\n  0x00\n    /* \"#utility.yul\":6354:6359   */\n  dup3\n    /* \"#utility.yul\":6348:6352   */\n  dup3\n    /* \"#utility.yul\":6344:6360   */\n  shr\n    /* \"#utility.yul\":6323:6360   */\n  swap1\n  pop\n    /* \"#utility.yul\":6250:6367   */\n  swap3\n  swap2\n  pop\n  pop\n  jump\t// out\n    /* \"#utility.yul\":6373:6542   */\ntag_39:\n    /* \"#utility.yul\":6417:6423   */\n  0x00\n    /* \"#utility.yul\":6450:6501   */\n  tag_121\n    /* \"#utility.yul\":6498:6499   */\n  0x00\n    /* \"#utility.yul\":6494:6500   */\n  not\n    /* \"#utility.yul\":6486:6491   */\n  dup5\n    /* \"#utility.yul\":6483:6484   */\n  0x08\n    /* \"#utility.yul\":6479:6492   */\n  mul\n    /* \"#utility.yul\":6450:6501   */\n  tag_38\n  jump\t// in\ntag_121:\n    /* \"#utility.yul\":6446:6502   */\n  not\n    /* \"#utility.yul\":6531:6535   */\n  dup1\n    /* \"#utility.yul\":6525:6529   */\n  dup4\n    /* \"#utility.yul\":6521:6536   */\n  and\n    /* \"#utility.yul\":6511:6536   */\n  swap2\n  pop\n    /* \"#utility.yul\":6424:6542   */\n  pop\n    /* \"#utility.yul\":6373:6542   */\n  swap3\n  swap2\n  pop\n  pop\n  jump\t// out\n    /* \"#utility.yul\":6547:6842   */\ntag_40:\n    /* \"#utility.yul\":6623:6627   */\n  0x00\n    /* \"#utility.yul\":6769:6798   */\n  tag_123\n    /* \"#utility.yul\":6794:6797   */\n  dup4\n    /* \"#utility.yul\":6788:6792   */\n  dup4\n    /* \"#utility.yul\":6769:6798   */\n  tag_39\n  jump\t// in\ntag_123:\n    /* \"#utility.yul\":6761:6798   */\n  swap2\n  pop\n    /* \"#utility.yul\":6831:6834   */\n  dup3\n    /* \"#utility.yul\":6828:6829   */\n  0x02\n    /* \"#utility.yul\":6824:6835   */\n  mul\n    /* \"#utility.yul\":6818:6822   */\n  dup3\n    /* \"#utility.yul\":6815:6836   */\n  or\n    /* \"#utility.yul\":6807:6836   */\n  swap1\n  pop\n    /* \"#utility.yul\":6547:6842   */\n  swap3\n  swap2\n  pop\n  pop\n  jump\t// out\n    /* \"#utility.yul\":6847:8242   */\ntag_7:\n    /* \"#utility.yul\":6964:7001   */\n  tag_125\n    /* \"#utility.yul\":6997:7000   */\n  dup3\n    /* \"#utility.yul\":6964:7001   */\n  tag_22\n  jump\t// in\ntag_125:\n    /* \"#utility.yul\":7066:7084   */\n  0xffffffffffffffff\n    /* \"#utility.yul\":7058:7064   */\n  dup2\n    /* \"#utility.yul\":7055:7085   */\n  gt\n    /* \"#utility.yul\":7052:7108   */\n  iszero\n  tag_126\n  jumpi\n    /* \"#utility.yul\":7088:7106   */\n  tag_127\n  tag_15\n  jump\t// in\ntag_127:\n    /* \"#utility.yul\":7052:7108   */\ntag_126:\n    /* \"#utility.yul\":7132:7170   */\n  tag_128\n    /* \"#utility.yul\":7164:7168   */\n  dup3\n    /* \"#utility.yul\":7158:7169   */\n  sload\n    /* \"#utility.yul\":7132:7170   */\n  tag_24\n  jump\t// in\ntag_128:\n    /* \"#utility.yul\":7217:7284   */\n  tag_129\n    /* \"#utility.yul\":7277:7283   */\n  dup3\n    /* \"#utility.yul\":7269:7275   */\n  dup3\n    /* \"#utility.yul\":7263:7267   */\n  dup6\n    /* \"#utility.yul\":7217:7284   */\n  tag_37\n  jump\t// in\ntag_129:\n    /* \"#utility.yul\":7311:7312   */\n  0x00\n    /* \"#utility.yul\":7335:7339   */\n  0x20\n    /* \"#utility.yul\":7322:7339   */\n  swap1\n  pop\n    /* \"#utility.yul\":7367:7369   */\n  0x1f\n    /* \"#utility.yul\":7359:7365   */\n  dup4\n    /* \"#utility.yul\":7356:7370   */\n  gt\n    /* \"#utility.yul\":7384:7385   */\n  0x01\n    /* \"#utility.yul\":7379:7997   */\n  dup2\n  eq\n  tag_131\n  jumpi\n    /* \"#utility.yul\":8041:8042   */\n  0x00\n    /* \"#utility.yul\":8058:8064   */\n  dup5\n    /* \"#utility.yul\":8055:8132   */\n  iszero\n  tag_132\n  jumpi\n    /* \"#utility.yul\":8107:8116   */\n  dup3\n    /* \"#utility.yul\":8102:8105   */\n  dup8\n    /* \"#utility.yul\":8098:8117   */\n  add\n    /* \"#utility.yul\":8092:8118   */\n  mload\n    /* \"#utility.yul\":8083:8118   */\n  swap1\n  pop\n    /* \"#utility.yul\":8055:8132   */\ntag_132:\n    /* \"#utility.yul\":8158:8225   */\n  tag_133\n    /* \"#utility.yul\":8218:8224   */\n  dup6\n    /* \"#utility.yul\":8211:8216   */\n  dup3\n    /* \"#utility.yul\":8158:8225   */\n  tag_40\n  jump\t// in\ntag_133:\n    /* \"#utility.yul\":8152:8156   */\n  dup7\n    /* \"#utility.yul\":8145:8226   */\n  sstore\n    /* \"#utility.yul\":8014:8236   */\n  pop\n    /* \"#utility.yul\":7349:8236   */\n  jump(tag_130)\n    /* \"#utility.yul\":7379:7997   */\ntag_131:\n    /* \"#utility.yul\":7431:7435   */\n  0x1f\n    /* \"#utility.yul\":7427:7436   */\n  not\n    /* \"#utility.yul\":7419:7425   */\n  dup5\n    /* \"#utility.yul\":7415:7437   */\n  and\n    /* \"#utility.yul\":7465:7502   */\n  tag_134\n    /* \"#utility.yul\":7497:7501   */\n  dup7\n    /* \"#utility.yul\":7465:7502   */\n  tag_25\n  jump\t// in\ntag_134:\n    /* \"#utility.yul\":7524:7525   */\n  0x00\n    /* \"#utility.yul\":7538:7746   */\ntag_135:\n    /* \"#utility.yul\":7552:7559   */\n  dup3\n    /* \"#utility.yul\":7549:7550   */\n  dup2\n    /* \"#utility.yul\":7546:7560   */\n  lt\n    /* \"#utility.yul\":7538:7746   */\n  iszero\n  tag_137\n  jumpi\n    /* \"#utility.yul\":7631:7640   */\n  dup5\n    /* \"#utility.yul\":7626:7629   */\n  dup10\n    /* \"#utility.yul\":7622:7641   */\n  add\n    /* \"#utility.yul\":7616:7642   */\n  mload\n    /* \"#utility.yul\":7608:7614   */\n  dup3\n    /* \"#utility.yul\":7601:7643   */\n  sstore\n    /* \"#utility.yul\":7682:7683   */\n  0x01\n    /* \"#utility.yul\":7674:7680   */\n  dup3\n    /* \"#utility.yul\":7670:7684   */\n  add\n    /* \"#utility.yul\":7660:7684   */\n  swap2\n  pop\n    /* \"#utility.yul\":7729:7731   */\n  0x20\n    /* \"#utility.yul\":7718:7727   */\n  dup6\n    /* \"#utility.yul\":7714:7732   */\n  add\n    /* \"#utility.yul\":7701:7732   */\n  swap5\n  pop\n    /* \"#utility.yul\":7575:7579   */\n  0x20\n    /* \"#utility.yul\":7572:7573   */\n  dup2\n    /* \"#utility.yul\":7568:7580   */\n  add\n    /* \"#utility.yul\":7563:7580   */\n  swap1\n  pop\n    /* \"#utility.yul\":7538:7746   */\n  jump(tag_135)\ntag_137:\n    /* \"#utility.yul\":7774:7780   */\n  dup7\n    /* \"#utility.yul\":7765:7772   */\n  dup4\n    /* \"#utility.yul\":7762:7781   */\n  lt\n    /* \"#utility.yul\":7759:7938   */\n  iszero\n  tag_138\n  jumpi\n    /* \"#utility.yul\":7832:7841   */\n  dup5\n    /* \"#utility.yul\":7827:7830   */\n  dup10\n    /* \"#utility.yul\":7823:7842   */\n  add\n    /* \"#utility.yul\":7817:7843   */\n  mload\n    /* \"#utility.yul\":7875:7923   */\n  tag_139\n    /* \"#utility.yul\":7917:7921   */\n  0x1f\n    /* \"#utility.yul\":7909:7915   */\n  dup10\n    /* \"#utility.yul\":7905:7922   */\n  and\n    /* \"#utility.yul\":7894:7903   */\n  dup3\n    /* \"#utility.yul\":7875:7923   */\n  tag_39\n  jump\t// in\ntag_139:\n    /* \"#utility.yul\":7867:7873   */\n  dup4\n    /* \"#utility.yul\":7860:7924   */\n  sstore\n    /* \"#utility.yul\":7782:7938   */\n  pop\n    /* \"#utility.yul\":7759:7938   */\ntag_138:\n    /* \"#utility.yul\":7984:7985   */\n  0x01\n    /* \"#utility.yul\":7980:7981   */\n  0x02\n    /* \"#utility.yul\":7972:7978   */\n  dup9\n    /* \"#utility.yul\":7968:7982   */\n  mul\n    /* \"#utility.yul\":7964:7986   */\n  add\n    /* \"#utility.yul\":7958:7962   */\n  dup9\n    /* \"#utility.yul\":7951:7987   */\n  sstore\n    /* \"#utility.yul\":7386:7997   */\n  pop\n  pop\n  pop\n    /* \"#utility.yul\":7349:8236   */\ntag_130:\n  pop\n    /* \"#utility.yul\":6939:8242   */\n  pop\n  pop\n  pop\n    /* \"#utility.yul\":6847:8242   */\n  pop\n  pop\n  jump\t// out\n    /* \"HelloWorld.sol\":125:618  contract HelloWorld { // Defines a contract named `HelloWorld`... */\ntag_8:\n  dataSize(sub_0)\n  dup1\n  dataOffset(sub_0)\n  0x00\n  codecopy\n  0x00\n  return\nstop\n\nsub_0: assembly {\n        /* \"HelloWorld.sol\":125:618  contract HelloWorld { // Defines a contract named `HelloWorld`... */\n      mstore(0x40, 0x80)\n      callvalue\n      dup1\n      iszero\n      tag_1\n      jumpi\n      0x00\n      dup1\n      revert\n    tag_1:\n      pop\n      jumpi(tag_2, lt(calldatasize, 0x04))\n      shr(0xe0, calldataload(0x00))\n      dup1\n      0x3d7403a3\n      eq\n      tag_3\n      jumpi\n      dup1\n      0xe21f37ce\n      eq\n      tag_4\n      jumpi\n    tag_2:\n      0x00\n      dup1\n      revert\n        /* \"HelloWorld.sol\":475:613  function update(string memory newMessage) public { // A public function that accepts a string argument.... */\n    tag_3:\n      tag_5\n      0x04\n      dup1\n      calldatasize\n      sub\n      dup2\n      add\n      swap1\n      tag_6\n      swap2\n      swap1\n      tag_7\n      jump\t// in\n    tag_6:\n      tag_8\n      jump\t// in\n    tag_5:\n      stop\n        /* \"HelloWorld.sol\":194:215  string public message */\n    tag_4:\n      tag_9\n      tag_10\n      jump\t// in\n    tag_9:\n      mload(0x40)\n      tag_11\n      swap2\n      swap1\n      tag_12\n      jump\t// in\n    tag_11:\n      mload(0x40)\n      dup1\n      swap2\n      sub\n      swap1\n      return\n        /* \"HelloWorld.sol\":475:613  function update(string memory newMessage) public { // A public function that accepts a string argument.... */\n    tag_8:\n        /* \"HelloWorld.sol\":596:606  newMessage */\n      dup1\n        /* \"HelloWorld.sol\":586:593  message */\n      0x00\n        /* \"HelloWorld.sol\":586:606  message = newMessage */\n      swap1\n      dup2\n      tag_14\n      swap2\n      swap1\n      tag_15\n      jump\t// in\n    tag_14:\n      pop\n        /* \"HelloWorld.sol\":475:613  function update(string memory newMessage) public { // A public function that accepts a string argument.... */\n      pop\n      jump\t// out\n        /* \"HelloWorld.sol\":194:215  string public message */\n    tag_10:\n      0x00\n      dup1\n      sload\n      tag_16\n      swap1\n      tag_17\n      jump\t// in\n    tag_16:\n      dup1\n      0x1f\n      add\n      0x20\n      dup1\n      swap2\n      div\n      mul\n      0x20\n      add\n      mload(0x40)\n      swap1\n      dup2\n      add\n      0x40\n      mstore\n      dup1\n      swap3\n      swap2\n      swap1\n      dup2\n      dup2\n      mstore\n      0x20\n      add\n      dup3\n      dup1\n      sload\n      tag_18\n      swap1\n      tag_17\n      jump\t// in\n    tag_18:\n      dup1\n      iszero\n      tag_19\n      jumpi\n      dup1\n      0x1f\n      lt\n      tag_20\n      jumpi\n      0x0100\n      dup1\n      dup4\n      sload\n      div\n      mul\n      dup4\n      mstore\n      swap2\n      0x20\n      add\n      swap2\n      jump(tag_19)\n    tag_20:\n      dup3\n      add\n      swap2\n      swap1\n      0x00\n      mstore\n      keccak256(0x00, 0x20)\n      swap1\n    tag_21:\n      dup2\n      sload\n      dup2\n      mstore\n      swap1\n      0x01\n      add\n      swap1\n      0x20\n      add\n      dup1\n      dup4\n      gt\n      tag_21\n      jumpi\n      dup3\n      swap1\n      sub\n      0x1f\n      and\n      dup3\n      add\n      swap2\n    tag_19:\n      pop\n      pop\n      pop\n      pop\n      pop\n      dup2\n      jump\t// out\n        /* \"#utility.yul\":7:82   */\n    tag_22:\n        /* \"#utility.yul\":40:46   */\n      0x00\n        /* \"#utility.yul\":73:75   */\n      0x40\n        /* \"#utility.yul\":67:76   */\n      mload\n        /* \"#utility.yul\":57:76   */\n      swap1\n      pop\n        /* \"#utility.yul\":7:82   */\n      swap1\n      jump\t// out\n        /* \"#utility.yul\":88:205   */\n    tag_23:\n        /* \"#utility.yul\":197:198   */\n      0x00\n        /* \"#utility.yul\":194:195   */\n      dup1\n        /* \"#utility.yul\":187:199   */\n      revert\n        /* \"#utility.yul\":211:328   */\n    tag_24:\n        /* \"#utility.yul\":320:321   */\n      0x00\n        /* \"#utility.yul\":317:318   */\n      dup1\n        /* \"#utility.yul\":310:322   */\n      revert\n        /* \"#utility.yul\":334:451   */\n    tag_25:\n        /* \"#utility.yul\":443:444   */\n      0x00\n        /* \"#utility.yul\":440:441   */\n      dup1\n        /* \"#utility.yul\":433:445   */\n      revert\n        /* \"#utility.yul\":457:574   */\n    tag_26:\n        /* \"#utility.yul\":566:567   */\n      0x00\n        /* \"#utility.yul\":563:564   */\n      dup1\n        /* \"#utility.yul\":556:568   */\n      revert\n        /* \"#utility.yul\":580:682   */\n    tag_27:\n        /* \"#utility.yul\":621:627   */\n      0x00\n        /* \"#utility.yul\":672:674   */\n      0x1f\n        /* \"#utility.yul\":668:675   */\n      not\n        /* \"#utility.yul\":663:665   */\n      0x1f\n        /* \"#utility.yul\":656:661   */\n      dup4\n        /* \"#utility.yul\":652:666   */\n      add\n        /* \"#utility.yul\":648:676   */\n      and\n        /* \"#utility.yul\":638:676   */\n      swap1\n      pop\n        /* \"#utility.yul\":580:682   */\n      swap2\n      swap1\n      pop\n      jump\t// out\n        /* \"#utility.yul\":688:868   */\n    tag_28:\n        /* \"#utility.yul\":736:813   */\n      0x4e487b7100000000000000000000000000000000000000000000000000000000\n        /* \"#utility.yul\":733:734   */\n      0x00\n        /* \"#utility.yul\":726:814   */\n      mstore\n        /* \"#utility.yul\":833:837   */\n      0x41\n        /* \"#utility.yul\":830:831   */\n      0x04\n        /* \"#utility.yul\":823:838   */\n      mstore\n        /* \"#utility.yul\":857:861   */\n      0x24\n        /* \"#utility.yul\":854:855   */\n      0x00\n        /* \"#utility.yul\":847:862   */\n      revert\n        /* \"#utility.yul\":874:1155   */\n    tag_29:\n        /* \"#utility.yul\":957:984   */\n      tag_65\n        /* \"#utility.yul\":979:983   */\n      dup3\n        /* \"#utility.yul\":957:984   */\n      tag_27\n      jump\t// in\n    tag_65:\n        /* \"#utility.yul\":949:955   */\n      dup2\n        /* \"#utility.yul\":945:985   */\n      add\n        /* \"#utility.yul\":1087:1093   */\n      dup2\n        /* \"#utility.yul\":1075:1085   */\n      dup2\n        /* \"#utility.yul\":1072:1094   */\n      lt\n        /* \"#utility.yul\":1051:1069   */\n      0xffffffffffffffff\n        /* \"#utility.yul\":1039:1049   */\n      dup3\n        /* \"#utility.yul\":1036:1070   */\n      gt\n        /* \"#utility.yul\":1033:1095   */\n      or\n        /* \"#utility.yul\":1030:1118   */\n      iszero\n      tag_66\n      jumpi\n        /* \"#utility.yul\":1098:1116   */\n      tag_67\n      tag_28\n      jump\t// in\n    tag_67:\n        /* \"#utility.yul\":1030:1118   */\n    tag_66:\n        /* \"#utility.yul\":1138:1148   */\n      dup1\n        /* \"#utility.yul\":1134:1136   */\n      0x40\n        /* \"#utility.yul\":1127:1149   */\n      mstore\n        /* \"#utility.yul\":917:1155   */\n      pop\n        /* \"#utility.yul\":874:1155   */\n      pop\n      pop\n      jump\t// out\n        /* \"#utility.yul\":1161:1290   */\n    tag_30:\n        /* \"#utility.yul\":1195:1201   */\n      0x00\n        /* \"#utility.yul\":1222:1242   */\n      tag_69\n      tag_22\n      jump\t// in\n    tag_69:\n        /* \"#utility.yul\":1212:1242   */\n      swap1\n      pop\n        /* \"#utility.yul\":1251:1284   */\n      tag_70\n        /* \"#utility.yul\":1279:1283   */\n      dup3\n        /* \"#utility.yul\":1271:1277   */\n      dup3\n        /* \"#utility.yul\":1251:1284   */\n      tag_29\n      jump\t// in\n    tag_70:\n        /* \"#utility.yul\":1161:1290   */\n      swap2\n      swap1\n      pop\n      jump\t// out\n        /* \"#utility.yul\":1296:1604   */\n    tag_31:\n        /* \"#utility.yul\":1358:1362   */\n      0x00\n        /* \"#utility.yul\":1448:1466   */\n      0xffffffffffffffff\n        /* \"#utility.yul\":1440:1446   */\n      dup3\n        /* \"#utility.yul\":1437:1467   */\n      gt\n        /* \"#utility.yul\":1434:1490   */\n      iszero\n      tag_72\n      jumpi\n        /* \"#utility.yul\":1470:1488   */\n      tag_73\n      tag_28\n      jump\t// in\n    tag_73:\n        /* \"#utility.yul\":1434:1490   */\n    tag_72:\n        /* \"#utility.yul\":1508:1537   */\n      tag_74\n        /* \"#utility.yul\":1530:1536   */\n      dup3\n        /* \"#utility.yul\":1508:1537   */\n      tag_27\n      jump\t// in\n    tag_74:\n        /* \"#utility.yul\":1500:1537   */\n      swap1\n      pop\n        /* \"#utility.yul\":1592:1596   */\n      0x20\n        /* \"#utility.yul\":1586:1590   */\n      dup2\n        /* \"#utility.yul\":1582:1597   */\n      add\n        /* \"#utility.yul\":1574:1597   */\n      swap1\n      pop\n        /* \"#utility.yul\":1296:1604   */\n      swap2\n      swap1\n      pop\n      jump\t// out\n        /* \"#utility.yul\":1610:1756   */\n    tag_32:\n        /* \"#utility.yul\":1707:1713   */\n      dup3\n        /* \"#utility.yul\":1702:1705   */\n      dup2\n        /* \"#utility.yul\":1697:1700   */\n      dup4\n        /* \"#utility.yul\":1684:1714   */\n      calldatacopy\n        /* \"#utility.yul\":1748:1749   */\n      0x00\n        /* \"#utility.yul\":1739:1745   */\n      dup4\n        /* \"#utility.yul\":1734:1737   */\n      dup4\n        /* \"#utility.yul\":1730:1746   */\n      add\n        /* \"#utility.yul\":1723:1750   */\n      mstore\n        /* \"#utility.yul\":1610:1756   */\n      pop\n      pop\n      pop\n      jump\t// out\n        /* \"#utility.yul\":1762:2187   */\n    tag_33:\n        /* \"#utility.yul\":1840:1845   */\n      0x00\n        /* \"#utility.yul\":1865:1931   */\n      tag_77\n        /* \"#utility.yul\":1881:1930   */\n      tag_78\n        /* \"#utility.yul\":1923:1929   */\n      dup5\n        /* \"#utility.yul\":1881:1930   */\n      tag_31\n      jump\t// in\n    tag_78:\n        /* \"#utility.yul\":1865:1931   */\n      tag_30\n      jump\t// in\n    tag_77:\n        /* \"#utility.yul\":1856:1931   */\n      swap1\n      pop\n        /* \"#utility.yul\":1954:1960   */\n      dup3\n        /* \"#utility.yul\":1947:1952   */\n      dup2\n        /* \"#utility.yul\":1940:1961   */\n      mstore\n        /* \"#utility.yul\":1992:1996   */\n      0x20\n        /* \"#utility.yul\":1985:1990   */\n      dup2\n        /* \"#utility.yul\":1981:1997   */\n      add\n        /* \"#utility.yul\":2030:2033   */\n      dup5\n        /* \"#utility.yul\":2021:2027   */\n      dup5\n        /* \"#utility.yul\":2016:2019   */\n      dup5\n        /* \"#utility.yul\":2012:2028   */\n      add\n        /* \"#utility.yul\":2009:2034   */\n      gt\n        /* \"#utility.yul\":2006:2118   */\n      iszero\n      tag_79\n      jumpi\n        /* \"#utility.yul\":2037:2116   */\n      tag_80\n      tag_26\n      jump\t// in\n    tag_80:\n        /* \"#utility.yul\":2006:2118   */\n    tag_79:\n        /* \"#utility.yul\":2127:2181   */\n      tag_81\n        /* \"#utility.yul\":2174:2180   */\n      dup5\n        /* \"#utility.yul\":2169:2172   */\n      dup3\n        /* \"#utility.yul\":2164:2167   */\n      dup6\n        /* \"#utility.yul\":2127:2181   */\n      tag_32\n      jump\t// in\n    tag_81:\n        /* \"#utility.yul\":1846:2187   */\n      pop\n        /* \"#utility.yul\":1762:2187   */\n      swap4\n      swap3\n      pop\n      pop\n      pop\n      jump\t// out\n        /* \"#utility.yul\":2207:2547   */\n    tag_34:\n        /* \"#utility.yul\":2263:2268   */\n      0x00\n        /* \"#utility.yul\":2312:2315   */\n      dup3\n        /* \"#utility.yul\":2305:2309   */\n      0x1f\n        /* \"#utility.yul\":2297:2303   */\n      dup4\n        /* \"#utility.yul\":2293:2310   */\n      add\n        /* \"#utility.yul\":2289:2316   */\n      slt\n        /* \"#utility.yul\":2279:2401   */\n      tag_83\n      jumpi\n        /* \"#utility.yul\":2320:2399   */\n      tag_84\n      tag_25\n      jump\t// in\n    tag_84:\n        /* \"#utility.yul\":2279:2401   */\n    tag_83:\n        /* \"#utility.yul\":2437:2443   */\n      dup2\n        /* \"#utility.yul\":2424:2444   */\n      calldataload\n        /* \"#utility.yul\":2462:2541   */\n      tag_85\n        /* \"#utility.yul\":2537:2540   */\n      dup5\n        /* \"#utility.yul\":2529:2535   */\n      dup3\n        /* \"#utility.yul\":2522:2526   */\n      0x20\n        /* \"#utility.yul\":2514:2520   */\n      dup7\n        /* \"#utility.yul\":2510:2527   */\n      add\n        /* \"#utility.yul\":2462:2541   */\n      tag_33\n      jump\t// in\n    tag_85:\n        /* \"#utility.yul\":2453:2541   */\n      swap2\n      pop\n        /* \"#utility.yul\":2269:2547   */\n      pop\n        /* \"#utility.yul\":2207:2547   */\n      swap3\n      swap2\n      pop\n      pop\n      jump\t// out\n        /* \"#utility.yul\":2553:3062   */\n    tag_7:\n        /* \"#utility.yul\":2622:2628   */\n      0x00\n        /* \"#utility.yul\":2671:2673   */\n      0x20\n        /* \"#utility.yul\":2659:2668   */\n      dup3\n        /* \"#utility.yul\":2650:2657   */\n      dup5\n        /* \"#utility.yul\":2646:2669   */\n      sub\n        /* \"#utility.yul\":2642:2674   */\n      slt\n        /* \"#utility.yul\":2639:2758   */\n      iszero\n      tag_87\n      jumpi\n        /* \"#utility.yul\":2677:2756   */\n      tag_88\n      tag_23\n      jump\t// in\n    tag_88:\n        /* \"#utility.yul\":2639:2758   */\n    tag_87:\n        /* \"#utility.yul\":2825:2826   */\n      0x00\n        /* \"#utility.yul\":2814:2823   */\n      dup3\n        /* \"#utility.yul\":2810:2827   */\n      add\n        /* \"#utility.yul\":2797:2828   */\n      calldataload\n        /* \"#utility.yul\":2855:2873   */\n      0xffffffffffffffff\n        /* \"#utility.yul\":2847:2853   */\n      dup2\n        /* \"#utility.yul\":2844:2874   */\n      gt\n        /* \"#utility.yul\":2841:2958   */\n      iszero\n      tag_89\n      jumpi\n        /* \"#utility.yul\":2877:2956   */\n      tag_90\n      tag_24\n      jump\t// in\n    tag_90:\n        /* \"#utility.yul\":2841:2958   */\n    tag_89:\n        /* \"#utility.yul\":2982:3045   */\n      tag_91\n        /* \"#utility.yul\":3037:3044   */\n      dup5\n        /* \"#utility.yul\":3028:3034   */\n      dup3\n        /* \"#utility.yul\":3017:3026   */\n      dup6\n        /* \"#utility.yul\":3013:3035   */\n      add\n        /* \"#utility.yul\":2982:3045   */\n      tag_34\n      jump\t// in\n    tag_91:\n        /* \"#utility.yul\":2972:3045   */\n      swap2\n      pop\n        /* \"#utility.yul\":2768:3055   */\n      pop\n        /* \"#utility.yul\":2553:3062   */\n      swap3\n      swap2\n      pop\n      pop\n      jump\t// out\n        /* \"#utility.yul\":3068:3167   */\n    tag_35:\n        /* \"#utility.yul\":3120:3126   */\n      0x00\n        /* \"#utility.yul\":3154:3159   */\n      dup2\n        /* \"#utility.yul\":3148:3160   */\n      mload\n        /* \"#utility.yul\":3138:3160   */\n      swap1\n      pop\n        /* \"#utility.yul\":3068:3167   */\n      swap2\n      swap1\n      pop\n      jump\t// out\n        /* \"#utility.yul\":3173:3342   */\n    tag_36:\n        /* \"#utility.yul\":3257:3268   */\n      0x00\n        /* \"#utility.yul\":3291:3297   */\n      dup3\n        /* \"#utility.yul\":3286:3289   */\n      dup3\n        /* \"#utility.yul\":3279:3298   */\n      mstore\n        /* \"#utility.yul\":3331:3335   */\n      0x20\n        /* \"#utility.yul\":3326:3329   */\n      dup3\n        /* \"#utility.yul\":3322:3336   */\n      add\n        /* \"#utility.yul\":3307:3336   */\n      swap1\n      pop\n        /* \"#utility.yul\":3173:3342   */\n      swap3\n      swap2\n      pop\n      pop\n      jump\t// out\n        /* \"#utility.yul\":3348:3594   */\n    tag_37:\n        /* \"#utility.yul\":3429:3430   */\n      0x00\n        /* \"#utility.yul\":3439:3552   */\n    tag_95:\n        /* \"#utility.yul\":3453:3459   */\n      dup4\n        /* \"#utility.yul\":3450:3451   */\n      dup2\n        /* \"#utility.yul\":3447:3460   */\n      lt\n        /* \"#utility.yul\":3439:3552   */\n      iszero\n      tag_97\n      jumpi\n        /* \"#utility.yul\":3538:3539   */\n      dup1\n        /* \"#utility.yul\":3533:3536   */\n      dup3\n        /* \"#utility.yul\":3529:3540   */\n      add\n        /* \"#utility.yul\":3523:3541   */\n      mload\n        /* \"#utility.yul\":3519:3520   */\n      dup2\n        /* \"#utility.yul\":3514:3517   */\n      dup5\n        /* \"#utility.yul\":3510:3521   */\n      add\n        /* \"#utility.yul\":3503:3542   */\n      mstore\n        /* \"#utility.yul\":3475:3477   */\n      0x20\n        /* \"#utility.yul\":3472:3473   */\n      dup2\n        /* \"#utility.yul\":3468:3478   */\n      add\n        /* \"#utility.yul\":3463:3478   */\n      swap1\n      pop\n        /* \"#utility.yul\":3439:3552   */\n      jump(tag_95)\n    tag_97:\n        /* \"#utility.yul\":3586:3587   */\n      0x00\n        /* \"#utility.yul\":3577:3583   */\n      dup5\n        /* \"#utility.yul\":3572:3575   */\n      dup5\n        /* \"#utility.yul\":3568:3584   */\n      add\n        /* \"#utility.yul\":3561:3588   */\n      mstore\n        /* \"#utility.yul\":3410:3594   */\n      pop\n        /* \"#utility.yul\":3348:3594   */\n      pop\n      pop\n      pop\n      jump\t// out\n        /* \"#utility.yul\":3600:3977   */\n    tag_38:\n        /* \"#utility.yul\":3688:3691   */\n      0x00\n        /* \"#utility.yul\":3716:3755   */\n      tag_99\n        /* \"#utility.yul\":3749:3754   */\n      dup3\n        /* \"#utility.yul\":3716:3755   */\n      tag_35\n      jump\t// in\n    tag_99:\n        /* \"#utility.yul\":3771:3842   */\n      tag_100\n        /* \"#utility.yul\":3835:3841   */\n      dup2\n        /* \"#utility.yul\":3830:3833   */\n      dup6\n        /* \"#utility.yul\":3771:3842   */\n      tag_36\n      jump\t// in\n    tag_100:\n        /* \"#utility.yul\":3764:3842   */\n      swap4\n      pop\n        /* \"#utility.yul\":3851:3916   */\n      tag_101\n        /* \"#utility.yul\":3909:3915   */\n      dup2\n        /* \"#utility.yul\":3904:3907   */\n      dup6\n        /* \"#utility.yul\":3897:3901   */\n      0x20\n        /* \"#utility.yul\":3890:3895   */\n      dup7\n        /* \"#utility.yul\":3886:3902   */\n      add\n        /* \"#utility.yul\":3851:3916   */\n      tag_37\n      jump\t// in\n    tag_101:\n        /* \"#utility.yul\":3941:3970   */\n      tag_102\n        /* \"#utility.yul\":3963:3969   */\n      dup2\n        /* \"#utility.yul\":3941:3970   */\n      tag_27\n      jump\t// in\n    tag_102:\n        /* \"#utility.yul\":3936:3939   */\n      dup5\n        /* \"#utility.yul\":3932:3971   */\n      add\n        /* \"#utility.yul\":3925:3971   */\n      swap2\n      pop\n        /* \"#utility.yul\":3692:3977   */\n      pop\n        /* \"#utility.yul\":3600:3977   */\n      swap3\n      swap2\n      pop\n      pop\n      jump\t// out\n        /* \"#utility.yul\":3983:4296   */\n    tag_12:\n        /* \"#utility.yul\":4096:4100   */\n      0x00\n        /* \"#utility.yul\":4134:4136   */\n      0x20\n        /* \"#utility.yul\":4123:4132   */\n      dup3\n        /* \"#utility.yul\":4119:4137   */\n      add\n        /* \"#utility.yul\":4111:4137   */\n      swap1\n      pop\n        /* \"#utility.yul\":4183:4192   */\n      dup2\n        /* \"#utility.yul\":4177:4181   */\n      dup2\n        /* \"#utility.yul\":4173:4193   */\n      sub\n        /* \"#utility.yul\":4169:4170   */\n      0x00\n        /* \"#utility.yul\":4158:4167   */\n      dup4\n        /* \"#utility.yul\":4154:4171   */\n      add\n        /* \"#utility.yul\":4147:4194   */\n      mstore\n        /* \"#utility.yul\":4211:4289   */\n      tag_104\n        /* \"#utility.yul\":4284:4288   */\n      dup2\n        /* \"#utility.yul\":4275:4281   */\n      dup5\n        /* \"#utility.yul\":4211:4289   */\n      tag_38\n      jump\t// in\n    tag_104:\n        /* \"#utility.yul\":4203:4289   */\n      swap1\n      pop\n        /* \"#utility.yul\":3983:4296   */\n      swap3\n      swap2\n      pop\n      pop\n      jump\t// out\n        /* \"#utility.yul\":4302:4482   */\n    tag_39:\n        /* \"#utility.yul\":4350:4427   */\n      0x4e487b7100000000000000000000000000000000000000000000000000000000\n        /* \"#utility.yul\":4347:4348   */\n      0x00\n        /* \"#utility.yul\":4340:4428   */\n      mstore\n        /* \"#utility.yul\":4447:4451   */\n      0x22\n        /* \"#utility.yul\":4444:4445   */\n      0x04\n        /* \"#utility.yul\":4437:4452   */\n      mstore\n        /* \"#utility.yul\":4471:4475   */\n      0x24\n        /* \"#utility.yul\":4468:4469   */\n      0x00\n        /* \"#utility.yul\":4461:4476   */\n      revert\n        /* \"#utility.yul\":4488:4808   */\n    tag_17:\n        /* \"#utility.yul\":4532:4538   */\n      0x00\n        /* \"#utility.yul\":4569:4570   */\n      0x02\n        /* \"#utility.yul\":4563:4567   */\n      dup3\n        /* \"#utility.yul\":4559:4571   */\n      div\n        /* \"#utility.yul\":4549:4571   */\n      swap1\n      pop\n        /* \"#utility.yul\":4616:4617   */\n      0x01\n        /* \"#utility.yul\":4610:4614   */\n      dup3\n        /* \"#utility.yul\":4606:4618   */\n      and\n        /* \"#utility.yul\":4637:4655   */\n      dup1\n        /* \"#utility.yul\":4627:4708   */\n      tag_107\n      jumpi\n        /* \"#utility.yul\":4693:4697   */\n      0x7f\n        /* \"#utility.yul\":4685:4691   */\n      dup3\n        /* \"#utility.yul\":4681:4698   */\n      and\n        /* \"#utility.yul\":4671:4698   */\n      swap2\n      pop\n        /* \"#utility.yul\":4627:4708   */\n    tag_107:\n        /* \"#utility.yul\":4755:4757   */\n      0x20\n        /* \"#utility.yul\":4747:4753   */\n      dup3\n        /* \"#utility.yul\":4744:4758   */\n      lt\n        /* \"#utility.yul\":4724:4742   */\n      dup2\n        /* \"#utility.yul\":4721:4759   */\n      sub\n        /* \"#utility.yul\":4718:4802   */\n      tag_108\n      jumpi\n        /* \"#utility.yul\":4774:4792   */\n      tag_109\n      tag_39\n      jump\t// in\n    tag_109:\n        /* \"#utility.yul\":4718:4802   */\n    tag_108:\n        /* \"#utility.yul\":4539:4808   */\n      pop\n        /* \"#utility.yul\":4488:4808   */\n      swap2\n      swap1\n      pop\n      jump\t// out\n        /* \"#utility.yul\":4814:4955   */\n    tag_40:\n        /* \"#utility.yul\":4863:4867   */\n      0x00\n        /* \"#utility.yul\":4886:4889   */\n      dup2\n        /* \"#utility.yul\":4878:4889   */\n      swap1\n      pop\n        /* \"#utility.yul\":4909:4912   */\n      dup2\n        /* \"#utility.yul\":4906:4907   */\n      0x00\n        /* \"#utility.yul\":4899:4913   */\n      mstore\n        /* \"#utility.yul\":4943:4947   */\n      0x20\n        /* \"#utility.yul\":4940:4941   */\n      0x00\n        /* \"#utility.yul\":4930:4948   */\n      keccak256\n        /* \"#utility.yul\":4922:4948   */\n      swap1\n      pop\n        /* \"#utility.yul\":4814:4955   */\n      swap2\n      swap1\n      pop\n      jump\t// out\n        /* \"#utility.yul\":4961:5054   */\n    tag_41:\n        /* \"#utility.yul\":4998:5004   */\n      0x00\n        /* \"#utility.yul\":5045:5047   */\n      0x20\n        /* \"#utility.yul\":5040:5042   */\n      0x1f\n        /* \"#utility.yul\":5033:5038   */\n      dup4\n        /* \"#utility.yul\":5029:5043   */\n      add\n        /* \"#utility.yul\":5025:5048   */\n      div\n        /* \"#utility.yul\":5015:5048   */\n      swap1\n      pop\n        /* \"#utility.yul\":4961:5054   */\n      swap2\n      swap1\n      pop\n      jump\t// out\n        /* \"#utility.yul\":5060:5167   */\n    tag_42:\n        /* \"#utility.yul\":5104:5112   */\n      0x00\n        /* \"#utility.yul\":5154:5159   */\n      dup3\n        /* \"#utility.yul\":5148:5152   */\n      dup3\n        /* \"#utility.yul\":5144:5160   */\n      shl\n        /* \"#utility.yul\":5123:5160   */\n      swap1\n      pop\n        /* \"#utility.yul\":5060:5167   */\n      swap3\n      swap2\n      pop\n      pop\n      jump\t// out\n        /* \"#utility.yul\":5173:5566   */\n    tag_43:\n        /* \"#utility.yul\":5242:5248   */\n      0x00\n        /* \"#utility.yul\":5292:5293   */\n      0x08\n        /* \"#utility.yul\":5280:5290   */\n      dup4\n        /* \"#utility.yul\":5276:5294   */\n      mul\n        /* \"#utility.yul\":5315:5412   */\n      tag_114\n        /* \"#utility.yul\":5345:5411   */\n      0xffffffffffffffffffffffffffffffffffffffffffffffffffffffffffffffff\n        /* \"#utility.yul\":5334:5343   */\n      dup3\n        /* \"#utility.yul\":5315:5412   */\n      tag_42\n      jump\t// in\n    tag_114:\n        /* \"#utility.yul\":5433:5472   */\n      tag_115\n        /* \"#utility.yul\":5463:5471   */\n      dup7\n        /* \"#utility.yul\":5452:5461   */\n      dup4\n        /* \"#utility.yul\":5433:5472   */\n      tag_42\n      jump\t// in\n    tag_115:\n        /* \"#utility.yul\":5421:5472   */\n      swap6\n      pop\n        /* \"#utility.yul\":5505:5509   */\n      dup1\n        /* \"#utility.yul\":5501:5510   */\n      not\n        /* \"#utility.yul\":5494:5499   */\n      dup5\n        /* \"#utility.yul\":5490:5511   */\n      and\n        /* \"#utility.yul\":5481:5511   */\n      swap4\n      pop\n        /* \"#utility.yul\":5554:5558   */\n      dup1\n        /* \"#utility.yul\":5544:5552   */\n      dup7\n        /* \"#utility.yul\":5540:5559   */\n      and\n        /* \"#utility.yul\":5533:5538   */\n      dup5\n        /* \"#utility.yul\":5530:5560   */\n      or\n        /* \"#utility.yul\":5520:5560   */\n      swap3\n      pop\n        /* \"#utility.yul\":5249:5566   */\n      pop\n      pop\n        /* \"#utility.yul\":5173:5566   */\n      swap4\n      swap3\n      pop\n      pop\n      pop\n      jump\t// out\n        /* \"#utility.yul\":5572:5649   */\n    tag_44:\n        /* \"#utility.yul\":5609:5616   */\n      0x00\n        /* \"#utility.yul\":5638:5643   */\n      dup2\n        /* \"#utility.yul\":5627:5643   */\n      swap1\n      pop\n        /* \"#utility.yul\":5572:5649   */\n      swap2\n      swap1\n      pop\n      jump\t// out\n        /* \"#utility.yul\":5655:5715   */\n    tag_45:\n        /* \"#utility.yul\":5683:5686   */\n      0x00\n        /* \"#utility.yul\":5704:5709   */\n      dup2\n        /* \"#utility.yul\":5697:5709   */\n      swap1\n      pop\n        /* \"#utility.yul\":5655:5715   */\n      swap2\n      swap1\n      pop\n      jump\t// out\n        /* \"#utility.yul\":5721:5863   */\n    tag_46:\n        /* \"#utility.yul\":5771:5780   */\n      0x00\n        /* \"#utility.yul\":5804:5857   */\n      tag_119\n        /* \"#utility.yul\":5822:5856   */\n      tag_120\n        /* \"#utility.yul\":5831:5855   */\n      tag_121\n        /* \"#utility.yul\":5849:5854   */\n      dup5\n        /* \"#utility.yul\":5831:5855   */\n      tag_44\n      jump\t// in\n    tag_121:\n        /* \"#utility.yul\":5822:5856   */\n      tag_45\n      jump\t// in\n    tag_120:\n        /* \"#utility.yul\":5804:5857   */\n      tag_44\n      jump\t// in\n    tag_119:\n        /* \"#utility.yul\":5791:5857   */\n      swap1\n      pop\n        /* \"#utility.yul\":5721:5863   */\n      swap2\n      swap1\n      pop\n      jump\t// out\n        /* \"#utility.yul\":5869:5944   */\n    tag_47:\n        /* \"#utility.yul\":5912:5915   */\n      0x00\n        /* \"#utility.yul\":5933:5938   */\n      dup2\n        /* \"#utility.yul\":5926:5938   */\n      swap1\n      pop\n        /* \"#utility.yul\":5869:5944   */\n      swap2\n      swap1\n      pop\n      jump\t// out\n        /* \"#utility.yul\":5950:6219   */\n    tag_48:\n        /* \"#utility.yul\":6060:6099   */\n      tag_124\n        /* \"#utility.yul\":6091:6098   */\n      dup4\n        /* \"#utility.yul\":6060:6099   */\n      tag_46\n      jump\t// in\n    tag_124:\n        /* \"#utility.yul\":6121:6212   */\n      tag_125\n        /* \"#utility.yul\":6170:6211   */\n      tag_126\n        /* \"#utility.yul\":6194:6210   */\n      dup3\n        /* \"#utility.yul\":6170:6211   */\n      tag_47\n      jump\t// in\n    tag_126:\n        /* \"#utility.yul\":6162:6168   */\n      dup5\n        /* \"#utility.yul\":6155:6159   */\n      dup5\n        /* \"#utility.yul\":6149:6160   */\n      sload\n        /* \"#utility.yul\":6121:6212   */\n      tag_43\n      jump\t// in\n    tag_125:\n        /* \"#utility.yul\":6115:6119   */\n      dup3\n        /* \"#utility.yul\":6108:6213   */\n      sstore\n        /* \"#utility.yul\":6026:6219   */\n      pop\n        /* \"#utility.yul\":5950:6219   */\n      pop\n      pop\n      pop\n      jump\t// out\n        /* \"#utility.yul\":6225:6298   */\n    tag_49:\n        /* \"#utility.yul\":6270:6273   */\n      0x00\n        /* \"#utility.yul\":6225:6298   */\n      swap1\n      jump\t// out\n        /* \"#utility.yul\":6304:6493   */\n    tag_50:\n        /* \"#utility.yul\":6381:6413   */\n      tag_129\n      tag_49\n      jump\t// in\n    tag_129:\n        /* \"#utility.yul\":6422:6487   */\n      tag_130\n        /* \"#utility.yul\":6480:6486   */\n      dup2\n        /* \"#utility.yul\":6472:6478   */\n      dup5\n        /* \"#utility.yul\":6466:6470   */\n      dup5\n        /* \"#utility.yul\":6422:6487   */\n      tag_48\n      jump\t// in\n    tag_130:\n        /* \"#utility.yul\":6357:6493   */\n      pop\n        /* \"#utility.yul\":6304:6493   */\n      pop\n      pop\n      jump\t// out\n        /* \"#utility.yul\":6499:6685   */\n    tag_51:\n        /* \"#utility.yul\":6559:6679   */\n    tag_132:\n        /* \"#utility.yul\":6576:6579   */\n      dup2\n        /* \"#utility.yul\":6569:6574   */\n      dup2\n        /* \"#utility.yul\":6566:6580   */\n      lt\n        /* \"#utility.yul\":6559:6679   */\n      iszero\n      tag_134\n      jumpi\n        /* \"#utility.yul\":6630:6669   */\n      tag_135\n        /* \"#utility.yul\":6667:6668   */\n      0x00\n        /* \"#utility.yul\":6660:6665   */\n      dup3\n        /* \"#utility.yul\":6630:6669   */\n      tag_50\n      jump\t// in\n    tag_135:\n        /* \"#utility.yul\":6603:6604   */\n      0x01\n        /* \"#utility.yul\":6596:6601   */\n      dup2\n        /* \"#utility.yul\":6592:6605   */\n      add\n        /* \"#utility.yul\":6583:6605   */\n      swap1\n      pop\n        /* \"#utility.yul\":6559:6679   */\n      jump(tag_132)\n    tag_134:\n        /* \"#utility.yul\":6499:6685   */\n      pop\n      pop\n      jump\t// out\n        /* \"#utility.yul\":6691:7234   */\n    tag_52:\n        /* \"#utility.yul\":6792:6794   */\n      0x1f\n        /* \"#utility.yul\":6787:6790   */\n      dup3\n        /* \"#utility.yul\":6784:6795   */\n      gt\n        /* \"#utility.yul\":6781:7227   */\n      iszero\n      tag_137\n      jumpi\n        /* \"#utility.yul\":6826:6864   */\n      tag_138\n        /* \"#utility.yul\":6858:6863   */\n      dup2\n        /* \"#utility.yul\":6826:6864   */\n      tag_40\n      jump\t// in\n    tag_138:\n        /* \"#utility.yul\":6910:6939   */\n      tag_139\n        /* \"#utility.yul\":6928:6938   */\n      dup5\n        /* \"#utility.yul\":6910:6939   */\n      tag_41\n      jump\t// in\n    tag_139:\n        /* \"#utility.yul\":6900:6908   */\n      dup2\n        /* \"#utility.yul\":6896:6940   */\n      add\n        /* \"#utility.yul\":7093:7095   */\n      0x20\n        /* \"#utility.yul\":7081:7091   */\n      dup6\n        /* \"#utility.yul\":7078:7096   */\n      lt\n        /* \"#utility.yul\":7075:7124   */\n      iszero\n      tag_140\n      jumpi\n        /* \"#utility.yul\":7114:7122   */\n      dup2\n        /* \"#utility.yul\":7099:7122   */\n      swap1\n      pop\n        /* \"#utility.yul\":7075:7124   */\n    tag_140:\n        /* \"#utility.yul\":7137:7217   */\n      tag_141\n        /* \"#utility.yul\":7193:7215   */\n      tag_142\n        /* \"#utility.yul\":7211:7214   */\n      dup6\n        /* \"#utility.yul\":7193:7215   */\n      tag_41\n      jump\t// in\n    tag_142:\n        /* \"#utility.yul\":7183:7191   */\n      dup4\n        /* \"#utility.yul\":7179:7216   */\n      add\n        /* \"#utility.yul\":7166:7177   */\n      dup3\n        /* \"#utility.yul\":7137:7217   */\n      tag_51\n      jump\t// in\n    tag_141:\n        /* \"#utility.yul\":6796:7227   */\n      pop\n      pop\n        /* \"#utility.yul\":6781:7227   */\n    tag_137:\n        /* \"#utility.yul\":6691:7234   */\n      pop\n      pop\n      pop\n      jump\t// out\n        /* \"#utility.yul\":7240:7357   */\n    tag_53:\n        /* \"#utility.yul\":7294:7302   */\n      0x00\n        /* \"#utility.yul\":7344:7349   */\n      dup3\n        /* \"#utility.yul\":7338:7342   */\n      dup3\n        /* \"#utility.yul\":7334:7350   */\n      shr\n        /* \"#utility.yul\":7313:7350   */\n      swap1\n      pop\n        /* \"#utility.yul\":7240:7357   */\n      swap3\n      swap2\n      pop\n      pop\n      jump\t// out\n        /* \"#utility.yul\":7363:7532   */\n    tag_54:\n        /* \"#utility.yul\":7407:7413   */\n      0x00\n        /* \"#utility.yul\":7440:7491   */\n      tag_145\n        /* \"#utility.yul\":7488:7489   */\n      0x00\n        /* \"#utility.yul\":7484:7490   */\n      not\n        /* \"#utility.yul\":7476:7481   */\n      dup5\n        /* \"#utility.yul\":7473:7474   */\n      0x08\n        /* \"#utility.yul\":7469:7482   */\n      mul\n        /* \"#utility.yul\":7440:7491   */\n      tag_53\n      jump\t// in\n    tag_145:\n        /* \"#utility.yul\":7436:7492   */\n      not\n        /* \"#utility.yul\":7521:7525   */\n      dup1\n        /* \"#utility.yul\":7515:7519   */\n      dup4\n        /* \"#utility.yul\":7511:7526   */\n      and\n        /* \"#utility.yul\":7501:7526   */\n      swap2\n      pop\n        /* \"#utility.yul\":7414:7532   */\n      pop\n        /* \"#utility.yul\":7363:7532   */\n      swap3\n      swap2\n      pop\n      pop\n      jump\t// out\n        /* \"#utility.yul\":7537:7832   */\n    tag_55:\n        /* \"#utility.yul\":7613:7617   */\n      0x00\n        /* \"#utility.yul\":7759:7788   */\n      tag_147\n        /* \"#utility.yul\":7784:7787   */\n      dup4\n        /* \"#utility.yul\":7778:7782   */\n      dup4\n        /* \"#utility.yul\":7759:7788   */\n      tag_54\n      jump\t// in\n    tag_147:\n        /* \"#utility.yul\":7751:7788   */\n      swap2\n      pop\n        /* \"#utility.yul\":7821:7824   */\n      dup3\n        /* \"#utility.yul\":7818:7819   */\n      0x02\n        /* \"#utility.yul\":7814:7825   */\n      mul\n        /* \"#utility.yul\":7808:7812   */\n      dup3\n        /* \"#utility.yul\":7805:7826   */\n      or\n        /* \"#utility.yul\":7797:7826   */\n      swap1\n      pop\n        /* \"#utility.yul\":7537:7832   */\n      swap3\n      swap2\n      pop\n      pop\n      jump\t// out\n        /* \"#utility.yul\":7837:9232   */\n    tag_15:\n        /* \"#utility.yul\":7954:7991   */\n      tag_149\n        /* \"#utility.yul\":7987:7990   */\n      dup3\n        /* \"#utility.yul\":7954:7991   */\n      tag_35\n      jump\t// in\n    tag_149:\n        /* \"#utility.yul\":8056:8074   */\n      0xffffffffffffffff\n        /* \"#utility.yul\":8048:8054   */\n      dup2\n        /* \"#utility.yul\":8045:8075   */\n      gt\n        /* \"#utility.yul\":8042:8098   */\n      iszero\n      tag_150\n      jumpi\n        /* \"#utility.yul\":8078:8096   */\n      tag_151\n      tag_28\n      jump\t// in\n    tag_151:\n        /* \"#utility.yul\":8042:8098   */\n    tag_150:\n        /* \"#utility.yul\":8122:8160   */\n      tag_152\n        /* \"#utility.yul\":8154:8158   */\n      dup3\n        /* \"#utility.yul\":8148:8159   */\n      sload\n        /* \"#utility.yul\":8122:8160   */\n      tag_17\n      jump\t// in\n    tag_152:\n        /* \"#utility.yul\":8207:8274   */\n      tag_153\n        /* \"#utility.yul\":8267:8273   */\n      dup3\n        /* \"#utility.yul\":8259:8265   */\n      dup3\n        /* \"#utility.yul\":8253:8257   */\n      dup6\n        /* \"#utility.yul\":8207:8274   */\n      tag_52\n      jump\t// in\n    tag_153:\n        /* \"#utility.yul\":8301:8302   */\n      0x00\n        /* \"#utility.yul\":8325:8329   */\n      0x20\n        /* \"#utility.yul\":8312:8329   */\n      swap1\n      pop\n        /* \"#utility.yul\":8357:8359   */\n      0x1f\n        /* \"#utility.yul\":8349:8355   */\n      dup4\n        /* \"#utility.yul\":8346:8360   */\n      gt\n        /* \"#utility.yul\":8374:8375   */\n      0x01\n        /* \"#utility.yul\":8369:8987   */\n      dup2\n      eq\n      tag_155\n      jumpi\n        /* \"#utility.yul\":9031:9032   */\n      0x00\n        /* \"#utility.yul\":9048:9054   */\n      dup5\n        /* \"#utility.yul\":9045:9122   */\n      iszero\n      tag_156\n      jumpi\n        /* \"#utility.yul\":9097:9106   */\n      dup3\n        /* \"#utility.yul\":9092:9095   */\n      dup8\n        /* \"#utility.yul\":9088:9107   */\n      add\n        /* \"#utility.yul\":9082:9108   */\n      mload\n        /* \"#utility.yul\":9073:9108   */\n      swap1\n      pop\n        /* \"#utility.yul\":9045:9122   */\n    tag_156:\n        /* \"#utility.yul\":9148:9215   */\n      tag_157\n        /* \"#utility.yul\":9208:9214   */\n      dup6\n        /* \"#utility.yul\":9201:9206   */\n      dup3\n        /* \"#utility.yul\":9148:9215   */\n      tag_55\n      jump\t// in\n    tag_157:\n        /* \"#utility.yul\":9142:9146   */\n      dup7\n        /* \"#utility.yul\":9135:9216   */\n      sstore\n        /* \"#utility.yul\":9004:9226   */\n      pop\n        /* \"#utility.yul\":8339:9226   */\n      jump(tag_154)\n        /* \"#utility.yul\":8369:8987   */\n    tag_155:\n        /* \"#utility.yul\":8421:8425   */\n      0x1f\n        /* \"#utility.yul\":8417:8426   */\n      not\n        /* \"#utility.yul\":8409:8415   */\n      dup5\n        /* \"#utility.yul\":8405:8427   */\n      and\n        /* \"#utility.yul\":8455:8492   */\n      tag_158\n        /* \"#utility.yul\":8487:8491   */\n      dup7\n        /* \"#utility.yul\":8455:8492   */\n      tag_40\n      jump\t// in\n    tag_158:\n        /* \"#utility.yul\":8514:8515   */\n      0x00\n        /* \"#utility.yul\":8528:8736   */\n    tag_159:\n        /* \"#utility.yul\":8542:8549   */\n      dup3\n        /* \"#utility.yul\":8539:8540   */\n      dup2\n        /* \"#utility.yul\":8536:8550   */\n      lt\n        /* \"#utility.yul\":8528:8736   */\n      iszero\n      tag_161\n      jumpi\n        /* \"#utility.yul\":8621:8630   */\n      dup5\n        /* \"#utility.yul\":8616:8619   */\n      dup10\n        /* \"#utility.yul\":8612:8631   */\n      add\n        /* \"#utility.yul\":8606:8632   */\n      mload\n        /* \"#utility.yul\":8598:8604   */\n      dup3\n        /* \"#utility.yul\":8591:8633   */\n      sstore\n        /* \"#utility.yul\":8672:8673   */\n      0x01\n        /* \"#utility.yul\":8664:8670   */\n      dup3\n        /* \"#utility.yul\":8660:8674   */\n      add\n        /* \"#utility.yul\":8650:8674   */\n      swap2\n      pop\n        /* \"#utility.yul\":8719:8721   */\n      0x20\n        /* \"#utility.yul\":8708:8717   */\n      dup6\n        /* \"#utility.yul\":8704:8722   */\n      add\n        /* \"#utility.yul\":8691:8722   */\n      swap5\n      pop\n        /* \"#utility.yul\":8565:8569   */\n      0x20\n        /* \"#utility.yul\":8562:8563   */\n      dup2\n        /* \"#utility.yul\":8558:8570   */\n      add\n        /* \"#utility.yul\":8553:8570   */\n      swap1\n      pop\n        /* \"#utility.yul\":8528:8736   */\n      jump(tag_159)\n    tag_161:\n        /* \"#utility.yul\":8764:8770   */\n      dup7\n        /* \"#utility.yul\":8755:8762   */\n      dup4\n        /* \"#utility.yul\":8752:8771   */\n      lt\n        /* \"#utility.yul\":8749:8928   */\n      iszero\n      tag_162\n      jumpi\n        /* \"#utility.yul\":8822:8831   */\n      dup5\n        /* \"#utility.yul\":8817:8820   */\n      dup10\n        /* \"#utility.yul\":8813:8832   */\n      add\n        /* \"#utility.yul\":8807:8833   */\n      mload\n        /* \"#utility.yul\":8865:8913   */\n      tag_163\n        /* \"#utility.yul\":8907:8911   */\n      0x1f\n        /* \"#utility.yul\":8899:8905   */\n      dup10\n        /* \"#utility.yul\":8895:8912   */\n      and\n        /* \"#utility.yul\":8884:8893   */\n      dup3\n        /* \"#utility.yul\":8865:8913   */\n      tag_54\n      jump\t// in\n    tag_163:\n        /* \"#utility.yul\":8857:8863   */\n      dup4\n        /* \"#utility.yul\":8850:8914   */\n      sstore\n        /* \"#utility.yul\":8772:8928   */\n      pop\n        /* \"#utility.yul\":8749:8928   */\n    tag_162:\n        /* \"#utility.yul\":8974:8975   */\n      0x01\n        /* \"#utility.yul\":8970:8971   */\n      0x02\n        /* \"#utility.yul\":8962:8968   */\n      dup9\n        /* \"#utility.yul\":8958:8972   */\n      mul\n        /* \"#utility.yul\":8954:8976   */\n      add\n        /* \"#utility.yul\":8948:8952   */\n      dup9\n        /* \"#utility.yul\":8941:8977   */\n      sstore\n        /* \"#utility.yul\":8376:8987   */\n      pop\n      pop\n      pop\n        /* \"#utility.yul\":8339:9226   */\n    tag_154:\n      pop\n        /* \"#utility.yul\":7929:9232   */\n      pop\n      pop\n      pop\n        /* \"#utility.yul\":7837:9232   */\n      pop\n      pop\n      jump\t// out\n\n    auxdata: 0xa26469706673582212204a5625165c0afba3be64827b1b1f3604f1c3c2af1278e1f75bd2304a649924d364736f6c63430008110033\n}\n",
				"bytecode": {
					"linkReferences": {},
					"object": "60806040523480156200001157600080fd5b5060405162000bee38038062000bee8339818101604052810190620000379190620001e3565b80600090816200004891906200047f565b505062000566565b6000604051905090565b600080fd5b600080fd5b600080fd5b600080fd5b6000601f19601f8301169050919050565b7f4e487b7100000000000000000000000000000000000000000000000000000000600052604160045260246000fd5b620000b9826200006e565b810181811067ffffffffffffffff82111715620000db57620000da6200007f565b5b80604052505050565b6000620000f062000050565b9050620000fe8282620000ae565b919050565b600067ffffffffffffffff8211156200012157620001206200007f565b5b6200012c826200006e565b9050602081019050919050565b60005b83811015620001595780820151818401526020810190506200013c565b60008484015250505050565b60006200017c620001768462000103565b620000e4565b9050828152602081018484840111156200019b576200019a62000069565b5b620001a884828562000139565b509392505050565b600082601f830112620001c857620001c762000064565b5b8151620001da84826020860162000165565b91505092915050565b600060208284031215620001fc57620001fb6200005a565b5b600082015167ffffffffffffffff8111156200021d576200021c6200005f565b5b6200022b84828501620001b0565b91505092915050565b600081519050919050565b7f4e487b7100000000000000000000000000000000000000000000000000000000600052602260045260246000fd5b600060028204905060018216806200028757607f821691505b6020821081036200029d576200029c6200023f565b5b50919050565b60008190508160005260206000209050919050565b60006020601f8301049050919050565b600082821b905092915050565b600060088302620003077fffffffffffffffffffffffffffffffffffffffffffffffffffffffffffffffff82620002c8565b620003138683620002c8565b95508019841693508086168417925050509392505050565b6000819050919050565b6000819050919050565b6000620003606200035a62000354846200032b565b62000335565b6200032b565b9050919050565b6000819050919050565b6200037c836200033f565b620003946200038b8262000367565b848454620002d5565b825550505050565b600090565b620003ab6200039c565b620003b881848462000371565b505050565b5b81811015620003e057620003d4600082620003a1565b600181019050620003be565b5050565b601f8211156200042f57620003f981620002a3565b6200040484620002b8565b8101602085101562000414578190505b6200042c6200042385620002b8565b830182620003bd565b50505b505050565b600082821c905092915050565b6000620004546000198460080262000434565b1980831691505092915050565b60006200046f838362000441565b9150826002028217905092915050565b6200048a8262000234565b67ffffffffffffffff811115620004a657620004a56200007f565b5b620004b282546200026e565b620004bf828285620003e4565b600060209050601f831160018114620004f75760008415620004e2578287015190505b620004ee858262000461565b8655506200055e565b601f1984166200050786620002a3565b60005b8281101562000531578489015182556001820191506020850194506020810190506200050a565b868310156200055157848901516200054d601f89168262000441565b8355505b6001600288020188555050505b505050505050565b61067880620005766000396000f3fe608060405234801561001057600080fd5b50600436106100365760003560e01c80633d7403a31461003b578063e21f37ce14610057575b600080fd5b61005560048036038101906100509190610270565b610075565b005b61005f610088565b60405161006c9190610338565b60405180910390f35b80600090816100849190610570565b5050565b6000805461009590610389565b80601f01602080910402602001604051908101604052809291908181526020018280546100c190610389565b801561010e5780601f106100e35761010080835404028352916020019161010e565b820191906000526020600020905b8154815290600101906020018083116100f157829003601f168201915b505050505081565b6000604051905090565b600080fd5b600080fd5b600080fd5b600080fd5b6000601f19601f8301169050919050565b7f4e487b7100000000000000000000000000000000000000000000000000000000600052604160045260246000fd5b61017d82610134565b810181811067ffffffffffffffff8211171561019c5761019b610145565b5b80604052505050565b60006101af610116565b90506101bb8282610174565b919050565b600067ffffffffffffffff8211156101db576101da610145565b5b6101e482610134565b9050602081019050919050565b82818337600083830152505050565b600061021361020e846101c0565b6101a5565b90508281526020810184848401111561022f5761022e61012f565b5b61023a8482856101f1565b509392505050565b600082601f8301126102575761025661012a565b5b8135610267848260208601610200565b91505092915050565b60006020828403121561028657610285610120565b5b600082013567ffffffffffffffff8111156102a4576102a3610125565b5b6102b084828501610242565b91505092915050565b600081519050919050565b600082825260208201905092915050565b60005b838110156102f35780820151818401526020810190506102d8565b60008484015250505050565b600061030a826102b9565b61031481856102c4565b93506103248185602086016102d5565b61032d81610134565b840191505092915050565b6000602082019050818103600083015261035281846102ff565b905092915050565b7f4e487b7100000000000000000000000000000000000000000000000000000000600052602260045260246000fd5b600060028204905060018216806103a157607f821691505b6020821081036103b4576103b361035a565b5b50919050565b60008190508160005260206000209050919050565b60006020601f8301049050919050565b600082821b905092915050565b60006008830261041c7fffffffffffffffffffffffffffffffffffffffffffffffffffffffffffffffff826103df565b61042686836103df565b95508019841693508086168417925050509392505050565b6000819050919050565b6000819050919050565b600061046d6104686104638461043e565b610448565b61043e565b9050919050565b6000819050919050565b61048783610452565b61049b61049382610474565b8484546103ec565b825550505050565b600090565b6104b06104a3565b6104bb81848461047e565b505050565b5b818110156104df576104d46000826104a8565b6001810190506104c1565b5050565b601f821115610524576104f5816103ba565b6104fe846103cf565b8101602085101561050d578190505b610521610519856103cf565b8301826104c0565b50505b505050565b600082821c905092915050565b600061054760001984600802610529565b1980831691505092915050565b60006105608383610536565b9150826002028217905092915050565b610579826102b9565b67ffffffffffffffff81111561059257610591610145565b5b61059c8254610389565b6105a78282856104e3565b600060209050601f8311600181146105da57600084156105c8578287015190505b6105d28582610554565b86555061063a565b601f1984166105e8866103ba565b60005b82811015610610578489015182556001820191506020850194506020810190506105eb565b8683101561062d5784890151610629601f891682610536565b8355505b6001600288020188555050505b50505050505056fea26469706673582212204a5625165c0afba3be64827b1b1f3604f1c3c2af1278e1f75bd2304a649924d364736f6c63430008110033",
					"opcodes": "PUSH1 0x80 PUSH1 0x40 MSTORE CALLVALUE DUP1 ISZERO PUSH3 0x11 JUMPI PUSH1 0x0 DUP1 REVERT JUMPDEST POP PUSH1 0x40 MLOAD PUSH3 0xBEE CODESIZE SUB DUP1 PUSH3 0xBEE DUP4 CODECOPY DUP2 DUP2 ADD PUSH1 0x40 MSTORE DUP2 ADD SWAP1 PUSH3 0x37 SWAP2 SWAP1 PUSH3 0x1E3 JUMP JUMPDEST DUP1 PUSH1 0x0 SWAP1 DUP2 PUSH3 0x48 SWAP2 SWAP1 PUSH3 0x47F JUMP JUMPDEST POP POP PUSH3 0x566 JUMP JUMPDEST PUSH1 0x0 PUSH1 0x40 MLOAD SWAP1 POP SWAP1 JUMP JUMPDEST PUSH1 0x0 DUP1 REVERT JUMPDEST PUSH1 0x0 DUP1 REVERT JUMPDEST PUSH1 0x0 DUP1 REVERT JUMPDEST PUSH1 0x0 DUP1 REVERT JUMPDEST PUSH1 0x0 PUSH1 0x1F NOT PUSH1 0x1F DUP4 ADD AND SWAP1 POP SWAP2 SWAP1 POP JUMP JUMPDEST PUSH32 0x4E487B7100000000000000000000000000000000000000000000000000000000 PUSH1 0x0 MSTORE PUSH1 0x41 PUSH1 0x4 MSTORE PUSH1 0x24 PUSH1 0x0 REVERT JUMPDEST PUSH3 0xB9 DUP3 PUSH3 0x6E JUMP JUMPDEST DUP2 ADD DUP2 DUP2 LT PUSH8 0xFFFFFFFFFFFFFFFF DUP3 GT OR ISZERO PUSH3 0xDB JUMPI PUSH3 0xDA PUSH3 0x7F JUMP JUMPDEST JUMPDEST DUP1 PUSH1 0x40 MSTORE POP POP POP JUMP JUMPDEST PUSH1 0x0 PUSH3 0xF0 PUSH3 0x50 JUMP JUMPDEST SWAP1 POP PUSH3 0xFE DUP3 DUP3 PUSH3 0xAE JUMP JUMPDEST SWAP2 SWAP1 POP JUMP JUMPDEST PUSH1 0x0 PUSH8 0xFFFFFFFFFFFFFFFF DUP3 GT ISZERO PUSH3 0x121 JUMPI PUSH3 0x120 PUSH3 0x7F JUMP JUMPDEST JUMPDEST PUSH3 0x12C DUP3 PUSH3 0x6E JUMP JUMPDEST SWAP1 POP PUSH1 0x20 DUP2 ADD SWAP1 POP SWAP2 SWAP1 POP JUMP JUMPDEST PUSH1 0x0 JUMPDEST DUP4 DUP2 LT ISZERO PUSH3 0x159 JUMPI DUP1 DUP3 ADD MLOAD DUP2 DUP5 ADD MSTORE PUSH1 0x20 DUP2 ADD SWAP1 POP PUSH3 0x13C JUMP JUMPDEST PUSH1 0x0 DUP5 DUP5 ADD MSTORE POP POP POP POP JUMP JUMPDEST PUSH1 0x0 PUSH3 0x17C PUSH3 0x176 DUP5 PUSH3 0x103 JUMP JUMPDEST PUSH3 0xE4 JUMP JUMPDEST SWAP1 POP DUP3 DUP2 MSTORE PUSH1 0x20 DUP2 ADD DUP5 DUP5 DUP5 ADD GT ISZERO PUSH3 0x19B JUMPI PUSH3 0x19A PUSH3 0x69 JUMP JUMPDEST JUMPDEST PUSH3 0x1A8 DUP5 DUP3 DUP6 PUSH3 0x139 JUMP JUMPDEST POP SWAP4 SWAP3 POP POP POP JUMP JUMPDEST PUSH1 0x0 DUP3 PUSH1 0x1F DUP4 ADD SLT PUSH3 0x1C8 JUMPI PUSH3 0x1C7 PUSH3 0x64 JUMP JUMPDEST JUMPDEST DUP2 MLOAD PUSH3 0x1DA DUP5 DUP3 PUSH1 0x20 DUP7 ADD PUSH3 0x165 JUMP JUMPDEST SWAP2 POP POP SWAP3 SWAP2 POP POP JUMP JUMPDEST PUSH1 0x0 PUSH1 0x20 DUP3 DUP5 SUB SLT ISZERO PUSH3 0x1FC JUMPI PUSH3 0x1FB PUSH3 0x5A JUMP JUMPDEST JUMPDEST PUSH1 0x0 DUP3 ADD MLOAD PUSH8 0xFFFFFFFFFFFFFFFF DUP2 GT ISZERO PUSH3 0x21D JUMPI PUSH3 0x21C PUSH3 0x5F JUMP JUMPDEST JUMPDEST PUSH3 0x22B DUP5 DUP3 DUP6 ADD PUSH3 0x1B0 JUMP JUMPDEST SWAP2 POP POP SWAP3 SWAP2 POP POP JUMP JUMPDEST PUSH1 0x0 DUP2 MLOAD SWAP1 POP SWAP2 SWAP1 POP JUMP JUMPDEST PUSH32 0x4E487B7100000000000000000000000000000000000000000000000000000000 PUSH1 0x0 MSTORE PUSH1 0x22 PUSH1 0x4 MSTORE PUSH1 0x24 PUSH1 0x0 REVERT JUMPDEST PUSH1 0x0 PUSH1 0x2 DUP3 DIV SWAP1 POP PUSH1 0x1 DUP3 AND DUP1 PUSH3 0x287 JUMPI PUSH1 0x7F DUP3 AND SWAP2 POP JUMPDEST PUSH1 0x20 DUP3 LT DUP2 SUB PUSH3 0x29D JUMPI PUSH3 0x29C PUSH3 0x23F JUMP JUMPDEST JUMPDEST POP SWAP2 SWAP1 POP JUMP JUMPDEST PUSH1 0x0 DUP2 SWAP1 POP DUP2 PUSH1 0x0 MSTORE PUSH1 0x20 PUSH1 0x0 KECCAK256 SWAP1 POP SWAP2 SWAP1 POP JUMP JUMPDEST PUSH1 0x0 PUSH1 0x20 PUSH1 0x1F DUP4 ADD DIV SWAP1 POP SWAP2 SWAP1 POP JUMP JUMPDEST PUSH1 0x0 DUP3 DUP3 SHL SWAP1 POP SWAP3 SWAP2 POP POP JUMP JUMPDEST PUSH1 0x0 PUSH1 0x8 DUP4 MUL PUSH3 0x307 PUSH32 0xFFFFFFFFFFFFFFFFFFFFFFFFFFFFFFFFFFFFFFFFFFFFFFFFFFFFFFFFFFFFFFFF DUP3 PUSH3 0x2C8 JUMP JUMPDEST PUSH3 0x313 DUP7 DUP4 PUSH3 0x2C8 JUMP JUMPDEST SWAP6 POP DUP1 NOT DUP5 AND SWAP4 POP DUP1 DUP7 AND DUP5 OR SWAP3 POP POP POP SWAP4 SWAP3 POP POP POP JUMP JUMPDEST PUSH1 0x0 DUP2 SWAP1 POP SWAP2 SWAP1 POP JUMP JUMPDEST PUSH1 0x0 DUP2 SWAP1 POP SWAP2 SWAP1 POP JUMP JUMPDEST PUSH1 0x0 PUSH3 0x360 PUSH3 0x35A PUSH3 0x354 DUP5 PUSH3 0x32B JUMP JUMPDEST PUSH3 0x335 JUMP JUMPDEST PUSH3 0x32B JUMP JUMPDEST SWAP1 POP SWAP2 SWAP1 POP JUMP JUMPDEST PUSH1 0x0 DUP2 SWAP1 POP SWAP2 SWAP1 POP JUMP JUMPDEST PUSH3 0x37C DUP4 PUSH3 0x33F JUMP JUMPDEST PUSH3 0x394 PUSH3 0x38B DUP3 PUSH3 0x367 JUMP JUMPDEST DUP5 DUP5 SLOAD PUSH3 0x2D5 JUMP JUMPDEST DUP3 SSTORE POP POP POP POP JUMP JUMPDEST PUSH1 0x0 SWAP1 JUMP JUMPDEST PUSH3 0x3AB PUSH3 0x39C JUMP JUMPDEST PUSH3 0x3B8 DUP2 DUP5 DUP5 PUSH3 0x371 JUMP JUMPDEST POP POP POP JUMP JUMPDEST JUMPDEST DUP2 DUP2 LT ISZERO PUSH3 0x3E0 JUMPI PUSH3 0x3D4 PUSH1 0x0 DUP3 PUSH3 0x3A1 JUMP JUMPDEST PUSH1 0x1 DUP2 ADD SWAP1 POP PUSH3 0x3BE JUMP JUMPDEST POP POP JUMP JUMPDEST PUSH1 0x1F DUP3 GT ISZERO PUSH3 0x42F JUMPI PUSH3 0x3F9 DUP2 PUSH3 0x2A3 JUMP JUMPDEST PUSH3 0x404 DUP5 PUSH3 0x2B8 JUMP JUMPDEST DUP2 ADD PUSH1 0x20 DUP6 LT ISZERO PUSH3 0x414 JUMPI DUP2 SWAP1 POP JUMPDEST PUSH3 0x42C PUSH3 0x423 DUP6 PUSH3 0x2B8 JUMP JUMPDEST DUP4 ADD DUP3 PUSH3 0x3BD JUMP JUMPDEST POP POP JUMPDEST POP POP POP JUMP JUMPDEST PUSH1 0x0 DUP3 DUP3 SHR SWAP1 POP SWAP3 SWAP2 POP POP JUMP JUMPDEST PUSH1 0x0 PUSH3 0x454 PUSH1 0x0 NOT DUP5 PUSH1 0x8 MUL PUSH3 0x434 JUMP JUMPDEST NOT DUP1 DUP4 AND SWAP2 POP POP SWAP3 SWAP2 POP POP JUMP JUMPDEST PUSH1 0x0 PUSH3 0x46F DUP4 DUP4 PUSH3 0x441 JUMP JUMPDEST SWAP2 POP DUP3 PUSH1 0x2 MUL DUP3 OR SWAP1 POP SWAP3 SWAP2 POP POP JUMP JUMPDEST PUSH3 0x48A DUP3 PUSH3 0x234 JUMP JUMPDEST PUSH8 0xFFFFFFFFFFFFFFFF DUP2 GT ISZERO PUSH3 0x4A6 JUMPI PUSH3 0x4A5 PUSH3 0x7F JUMP JUMPDEST JUMPDEST PUSH3 0x4B2 DUP3 SLOAD PUSH3 0x26E JUMP JUMPDEST PUSH3 0x4BF DUP3 DUP3 DUP6 PUSH3 0x3E4 JUMP JUMPDEST PUSH1 0x0 PUSH1 0x20 SWAP1 POP PUSH1 0x1F DUP4 GT PUSH1 0x1 DUP2 EQ PUSH3 0x4F7 JUMPI PUSH1 0x0 DUP5 ISZERO PUSH3 0x4E2 JUMPI DUP3 DUP8 ADD MLOAD SWAP1 POP JUMPDEST PUSH3 0x4EE DUP6 DUP3 PUSH3 0x461 JUMP JUMPDEST DUP7 SSTORE POP PUSH3 0x55E JUMP JUMPDEST PUSH1 0x1F NOT DUP5 AND PUSH3 0x507 DUP7 PUSH3 0x2A3 JUMP JUMPDEST PUSH1 0x0 JUMPDEST DUP3 DUP2 LT ISZERO PUSH3 0x531 JUMPI DUP5 DUP10 ADD MLOAD DUP3 SSTORE PUSH1 0x1 DUP3 ADD SWAP2 POP PUSH1 0x20 DUP6 ADD SWAP5 POP PUSH1 0x20 DUP2 ADD SWAP1 POP PUSH3 0x50A JUMP JUMPDEST DUP7 DUP4 LT ISZERO PUSH3 0x551 JUMPI DUP5 DUP10 ADD MLOAD PUSH3 0x54D PUSH1 0x1F DUP10 AND DUP3 PUSH3 0x441 JUMP JUMPDEST DUP4 SSTORE POP JUMPDEST PUSH1 0x1 PUSH1 0x2 DUP9 MUL ADD DUP9 SSTORE POP POP POP JUMPDEST POP POP POP POP POP POP JUMP JUMPDEST PUSH2 0x678 DUP1 PUSH3 0x576 PUSH1 0x0 CODECOPY PUSH1 0x0 RETURN INVALID PUSH1 0x80 PUSH1 0x40 MSTORE CALLVALUE DUP1 ISZERO PUSH2 0x10 JUMPI PUSH1 0x0 DUP1 REVERT JUMPDEST POP PUSH1 0x4 CALLDATASIZE LT PUSH2 0x36 JUMPI PUSH1 0x0 CALLDATALOAD PUSH1 0xE0 SHR DUP1 PUSH4 0x3D7403A3 EQ PUSH2 0x3B JUMPI DUP1 PUSH4 0xE21F37CE EQ PUSH2 0x57 JUMPI JUMPDEST PUSH1 0x0 DUP1 REVERT JUMPDEST PUSH2 0x55 PUSH1 0x4 DUP1 CALLDATASIZE SUB DUP2 ADD SWAP1 PUSH2 0x50 SWAP2 SWAP1 PUSH2 0x270 JUMP JUMPDEST PUSH2 0x75 JUMP JUMPDEST STOP JUMPDEST PUSH2 0x5F PUSH2 0x88 JUMP JUMPDEST PUSH1 0x40 MLOAD PUSH2 0x6C SWAP2 SWAP1 PUSH2 0x338 JUMP JUMPDEST PUSH1 0x40 MLOAD DUP1 SWAP2 SUB SWAP1 RETURN JUMPDEST DUP1 PUSH1 0x0 SWAP1 DUP2 PUSH2 0x84 SWAP2 SWAP1 PUSH2 0x570 JUMP JUMPDEST POP POP JUMP JUMPDEST PUSH1 0x0 DUP1 SLOAD PUSH2 0x95 SWAP1 PUSH2 0x389 JUMP JUMPDEST DUP1 PUSH1 0x1F ADD PUSH1 0x20 DUP1 SWAP2 DIV MUL PUSH1 0x20 ADD PUSH1 0x40 MLOAD SWAP1 DUP2 ADD PUSH1 0x40 MSTORE DUP1 SWAP3 SWAP2 SWAP1 DUP2 DUP2 MSTORE PUSH1 0x20 ADD DUP3 DUP1 SLOAD PUSH2 0xC1 SWAP1 PUSH2 0x389 JUMP JUMPDEST DUP1 ISZERO PUSH2 0x10E JUMPI DUP1 PUSH1 0x1F LT PUSH2 0xE3 JUMPI PUSH2 0x100 DUP1 DUP4 SLOAD DIV MUL DUP4 MSTORE SWAP2 PUSH1 0x20 ADD SWAP2 PUSH2 0x10E JUMP JUMPDEST DUP3 ADD SWAP2 SWAP1 PUSH1 0x0 MSTORE PUSH1 0x20 PUSH1 0x0 KECCAK256 SWAP1 JUMPDEST DUP2 SLOAD DUP2 MSTORE SWAP1 PUSH1 0x1 ADD SWAP1 PUSH1 0x20 ADD DUP1 DUP4 GT PUSH2 0xF1 JUMPI DUP3 SWAP1 SUB PUSH1 0x1F AND DUP3 ADD SWAP2 JUMPDEST POP POP POP POP POP DUP2 JUMP JUMPDEST PUSH1 0x0 PUSH1 0x40 MLOAD SWAP1 POP SWAP1 JUMP JUMPDEST PUSH1 0x0 DUP1 REVERT JUMPDEST PUSH1 0x0 DUP1 REVERT JUMPDEST PUSH1 0x0 DUP1 REVERT JUMPDEST PUSH1 0x0 DUP1 REVERT JUMPDEST PUSH1 0x0 PUSH1 0x1F NOT PUSH1 0x1F DUP4 ADD AND SWAP1 POP SWAP2 SWAP1 POP JUMP JUMPDEST PUSH32 0x4E487B7100000000000000000000000000000000000000000000000000000000 PUSH1 0x0 MSTORE PUSH1 0x41 PUSH1 0x4 MSTORE PUSH1 0x24 PUSH1 0x0 REVERT JUMPDEST PUSH2 0x17D DUP3 PUSH2 0x134 JUMP JUMPDEST DUP2 ADD DUP2 DUP2 LT PUSH8 0xFFFFFFFFFFFFFFFF DUP3 GT OR ISZERO PUSH2 0x19C JUMPI PUSH2 0x19B PUSH2 0x145 JUMP JUMPDEST JUMPDEST DUP1 PUSH1 0x40 MSTORE POP POP POP JUMP JUMPDEST PUSH1 0x0 PUSH2 0x1AF PUSH2 0x116 JUMP JUMPDEST SWAP1 POP PUSH2 0x1BB DUP3 DUP3 PUSH2 0x174 JUMP JUMPDEST SWAP2 SWAP1 POP JUMP JUMPDEST PUSH1 0x0 PUSH8 0xFFFFFFFFFFFFFFFF DUP3 GT ISZERO PUSH2 0x1DB JUMPI PUSH2 0x1DA PUSH2 0x145 JUMP JUMPDEST JUMPDEST PUSH2 0x1E4 DUP3 PUSH2 0x134 JUMP JUMPDEST SWAP1 POP PUSH1 0x20 DUP2 ADD SWAP1 POP SWAP2 SWAP1 POP JUMP JUMPDEST DUP3 DUP2 DUP4 CALLDATACOPY PUSH1 0x0 DUP4 DUP4 ADD MSTORE POP POP POP JUMP JUMPDEST PUSH1 0x0 PUSH2 0x213 PUSH2 0x20E DUP5 PUSH2 0x1C0 JUMP JUMPDEST PUSH2 0x1A5 JUMP JUMPDEST SWAP1 POP DUP3 DUP2 MSTORE PUSH1 0x20 DUP2 ADD DUP5 DUP5 DUP5 ADD GT ISZERO PUSH2 0x22F JUMPI PUSH2 0x22E PUSH2 0x12F JUMP JUMPDEST JUMPDEST PUSH2 0x23A DUP5 DUP3 DUP6 PUSH2 0x1F1 JUMP JUMPDEST POP SWAP4 SWAP3 POP POP POP JUMP JUMPDEST PUSH1 0x0 DUP3 PUSH1 0x1F DUP4 ADD SLT PUSH2 0x257 JUMPI PUSH2 0x256 PUSH2 0x12A JUMP JUMPDEST JUMPDEST DUP2 CALLDATALOAD PUSH2 0x267 DUP5 DUP3 PUSH1 0x20 DUP7 ADD PUSH2 0x200 JUMP JUMPDEST SWAP2 POP POP SWAP3 SWAP2 POP POP JUMP JUMPDEST PUSH1 0x0 PUSH1 0x20 DUP3 DUP5 SUB SLT ISZERO PUSH2 0x286 JUMPI PUSH2 0x285 PUSH2 0x120 JUMP JUMPDEST JUMPDEST PUSH1 0x0 DUP3 ADD CALLDATALOAD PUSH8 0xFFFFFFFFFFFFFFFF DUP2 GT ISZERO PUSH2 0x2A4 JUMPI PUSH2 0x2A3 PUSH2 0x125 JUMP JUMPDEST JUMPDEST PUSH2 0x2B0 DUP5 DUP3 DUP6 ADD PUSH2 0x242 JUMP JUMPDEST SWAP2 POP POP SWAP3 SWAP2 POP POP JUMP JUMPDEST PUSH1 0x0 DUP2 MLOAD SWAP1 POP SWAP2 SWAP1 POP JUMP JUMPDEST PUSH1 0x0 DUP3 DUP3 MSTORE PUSH1 0x20 DUP3 ADD SWAP1 POP SWAP3 SWAP2 POP POP JUMP JUMPDEST PUSH1 0x0 JUMPDEST DUP4 DUP2 LT ISZERO PUSH2 0x2F3 JUMPI DUP1 DUP3 ADD MLOAD DUP2 DUP5 ADD MSTORE PUSH1 0x20 DUP2 ADD SWAP1 POP PUSH2 0x2D8 JUMP JUMPDEST PUSH1 0x0 DUP5 DUP5 ADD MSTORE POP POP POP POP JUMP JUMPDEST PUSH1 0x0 PUSH2 0x30A DUP3 PUSH2 0x2B9 JUMP JUMPDEST PUSH2 0x314 DUP2 DUP6 PUSH2 0x2C4 JUMP JUMPDEST SWAP4 POP PUSH2 0x324 DUP2 DUP6 PUSH1 0x20 DUP7 ADD PUSH2 0x2D5 JUMP JUMPDEST PUSH2 0x32D DUP2 PUSH2 0x134 JUMP JUMPDEST DUP5 ADD SWAP2 POP POP SWAP3 SWAP2 POP POP JUMP JUMPDEST PUSH1 0x0 PUSH1 0x20 DUP3 ADD SWAP1 POP DUP2 DUP2 SUB PUSH1 0x0 DUP4 ADD MSTORE PUSH2 0x352 DUP2 DUP5 PUSH2 0x2FF JUMP JUMPDEST SWAP1 POP SWAP3 SWAP2 POP POP JUMP JUMPDEST PUSH32 0x4E487B7100000000000000000000000000000000000000000000000000000000 PUSH1 0x0 MSTORE PUSH1 0x22 PUSH1 0x4 MSTORE PUSH1 0x24 PUSH1 0x0 REVERT JUMPDEST PUSH1 0x0 PUSH1 0x2 DUP3 DIV SWAP1 POP PUSH1 0x1 DUP3 AND DUP1 PUSH2 0x3A1 JUMPI PUSH1 0x7F DUP3 AND SWAP2 POP JUMPDEST PUSH1 0x20 DUP3 LT DUP2 SUB PUSH2 0x3B4 JUMPI PUSH2 0x3B3 PUSH2 0x35A JUMP JUMPDEST JUMPDEST POP SWAP2 SWAP1 POP JUMP JUMPDEST PUSH1 0x0 DUP2 SWAP1 POP DUP2 PUSH1 0x0 MSTORE PUSH1 0x20 PUSH1 0x0 KECCAK256 SWAP1 POP SWAP2 SWAP1 POP JUMP JUMPDEST PUSH1 0x0 PUSH1 0x20 PUSH1 0x1F DUP4 ADD DIV SWAP1 POP SWAP2 SWAP1 POP JUMP JUMPDEST PUSH1 0x0 DUP3 DUP3 SHL SWAP1 POP SWAP3 SWAP2 POP POP JUMP JUMPDEST PUSH1 0x0 PUSH1 0x8 DUP4 MUL PUSH2 0x41C PUSH32 0xFFFFFFFFFFFFFFFFFFFFFFFFFFFFFFFFFFFFFFFFFFFFFFFFFFFFFFFFFFFFFFFF DUP3 PUSH2 0x3DF JUMP JUMPDEST PUSH2 0x426 DUP7 DUP4 PUSH2 0x3DF JUMP JUMPDEST SWAP6 POP DUP1 NOT DUP5 AND SWAP4 POP DUP1 DUP7 AND DUP5 OR SWAP3 POP POP POP SWAP4 SWAP3 POP POP POP JUMP JUMPDEST PUSH1 0x0 DUP2 SWAP1 POP SWAP2 SWAP1 POP JUMP JUMPDEST PUSH1 0x0 DUP2 SWAP1 POP SWAP2 SWAP1 POP JUMP JUMPDEST PUSH1 0x0 PUSH2 0x46D PUSH2 0x468 PUSH2 0x463 DUP5 PUSH2 0x43E JUMP JUMPDEST PUSH2 0x448 JUMP JUMPDEST PUSH2 0x43E JUMP JUMPDEST SWAP1 POP SWAP2 SWAP1 POP JUMP JUMPDEST PUSH1 0x0 DUP2 SWAP1 POP SWAP2 SWAP1 POP JUMP JUMPDEST PUSH2 0x487 DUP4 PUSH2 0x452 JUMP JUMPDEST PUSH2 0x49B PUSH2 0x493 DUP3 PUSH2 0x474 JUMP JUMPDEST DUP5 DUP5 SLOAD PUSH2 0x3EC JUMP JUMPDEST DUP3 SSTORE POP POP POP POP JUMP JUMPDEST PUSH1 0x0 SWAP1 JUMP JUMPDEST PUSH2 0x4B0 PUSH2 0x4A3 JUMP JUMPDEST PUSH2 0x4BB DUP2 DUP5 DUP5 PUSH2 0x47E JUMP JUMPDEST POP POP POP JUMP JUMPDEST JUMPDEST DUP2 DUP2 LT ISZERO PUSH2 0x4DF JUMPI PUSH2 0x4D4 PUSH1 0x0 DUP3 PUSH2 0x4A8 JUMP JUMPDEST PUSH1 0x1 DUP2 ADD SWAP1 POP PUSH2 0x4C1 JUMP JUMPDEST POP POP JUMP JUMPDEST PUSH1 0x1F DUP3 GT ISZERO PUSH2 0x524 JUMPI PUSH2 0x4F5 DUP2 PUSH2 0x3BA JUMP JUMPDEST PUSH2 0x4FE DUP5 PUSH2 0x3CF JUMP JUMPDEST DUP2 ADD PUSH1 0x20 DUP6 LT ISZERO PUSH2 0x50D JUMPI DUP2 SWAP1 POP JUMPDEST PUSH2 0x521 PUSH2 0x519 DUP6 PUSH2 0x3CF JUMP JUMPDEST DUP4 ADD DUP3 PUSH2 0x4C0 JUMP JUMPDEST POP POP JUMPDEST POP POP POP JUMP JUMPDEST PUSH1 0x0 DUP3 DUP3 SHR SWAP1 POP SWAP3 SWAP2 POP POP JUMP JUMPDEST PUSH1 0x0 PUSH2 0x547 PUSH1 0x0 NOT DUP5 PUSH1 0x8 MUL PUSH2 0x529 JUMP JUMPDEST NOT DUP1 DUP4 AND SWAP2 POP POP SWAP3 SWAP2 POP POP JUMP JUMPDEST PUSH1 0x0 PUSH2 0x560 DUP4 DUP4 PUSH2 0x536 JUMP JUMPDEST SWAP2 POP DUP3 PUSH1 0x2 MUL DUP3 OR SWAP1 POP SWAP3 SWAP2 POP POP JUMP JUMPDEST PUSH2 0x579 DUP3 PUSH2 0x2B9 JUMP JUMPDEST PUSH8 0xFFFFFFFFFFFFFFFF DUP2 GT ISZERO PUSH2 0x592 JUMPI PUSH2 0x591 PUSH2 0x145 JUMP JUMPDEST JUMPDEST PUSH2 0x59C DUP3 SLOAD PUSH2 0x389 JUMP JUMPDEST PUSH2 0x5A7 DUP3 DUP3 DUP6 PUSH2 0x4E3 JUMP JUMPDEST PUSH1 0x0 PUSH1 0x20 SWAP1 POP PUSH1 0x1F DUP4 GT PUSH1 0x1 DUP2 EQ PUSH2 0x5DA JUMPI PUSH1 0x0 DUP5 ISZERO PUSH2 0x5C8 JUMPI DUP3 DUP8 ADD MLOAD SWAP1 POP JUMPDEST PUSH2 0x5D2 DUP6 DUP3 PUSH2 0x554 JUMP JUMPDEST DUP7 SSTORE POP PUSH2 0x63A JUMP JUMPDEST PUSH1 0x1F NOT DUP5 AND PUSH2 0x5E8 DUP7 PUSH2 0x3BA JUMP JUMPDEST PUSH1 0x0 JUMPDEST DUP3 DUP2 LT ISZERO PUSH2 0x610 JUMPI DUP5 DUP10 ADD MLOAD DUP3 SSTORE PUSH1 0x1 DUP3 ADD SWAP2 POP PUSH1 0x20 DUP6 ADD SWAP5 POP PUSH1 0x20 DUP2 ADD SWAP1 POP PUSH2 0x5EB JUMP JUMPDEST DUP7 DUP4 LT ISZERO PUSH2 0x62D JUMPI DUP5 DUP10 ADD MLOAD PUSH2 0x629 PUSH1 0x1F DUP10 AND DUP3 PUSH2 0x536 JUMP JUMPDEST DUP4 SSTORE POP JUMPDEST PUSH1 0x1 PUSH1 0x2 DUP9 MUL ADD DUP9 SSTORE POP POP POP JUMPDEST POP POP POP POP POP POP JUMP INVALID LOG2 PUSH5 0x6970667358 0x22 SLT KECCAK256 0x4A JUMP 0x25 AND 0x5C EXP 0xFB LOG3 0xBE PUSH5 0x827B1B1F36 DIV CALL 0xC3 0xC2 0xAF SLT PUSH25 0xE1F75BD2304A649924D364736F6C6343000811003300000000 "
				},
				"gasEstimates": {
					"creation": {
						"codeDepositCost": "331200",
						"executionCost": "infinite",
						"totalCost": "infinite"
					},
					"external": {
						"message()": "infinite",
						"update(string)": "infinite"
					}
				},
				"methodIdentifiers": {
					"message()": "e21f37ce",
					"update(string)": "3d7403a3"
				}
			},
			"storageLayout": {
				"storage": [
					{
						"astId": 3,
						"contract": "HelloWorld.sol:HelloWorld",
						"label": "message",
						"offset": 0,
						"slot": "0",
						"type": "t_string_storage"
					}
				],
				"types": {
					"t_string_storage": {
						"encoding": "bytes",
						"label": "string",
						"numberOfBytes": "32"
					}
				}
			},
			"userdoc": {
				"kind": "user",
				"methods": {},
				"version": 1
			}
		}
	}
}